:020000040800F2
:105000000000012025620008415F0008495F000898
:105010008D5F0008955F0008D15F00080000000068
:10502000000000000000000000000000E12F010867
:10503000D95F000800000000C131010809320108F1
:10504000756200087562000875620008E55F000877
:1050500075620008756200087562000875620008D4
:1050600075620008756200087562000875620008C4
:1050700075620008756200087562000875620008B4
:1050800075620008756200080D600008756200080E
:105090000000000075620008756200087562000873
:1050A00075620008756200087562000821600008DA
:1050B00035600008756200087562000875620008B6
:1050C0007562000875620008756200087562000864
:1050D000496000085D60000875620008756200089C
:1050E0007562000875620008F95F000875620008C3
:1050F00075620008000000000000000075620008F2
:105100007562000875620008716000087562000829
:105110007562000875620008756200087562000813
:105120007562000875620008756200087562000803
:085130007562000875620008B9
:085200000100000001000000A4
:1052100010B5054C237833B9044B13B10448AFF3F0
:1052200000800123237010BD380200200000000020
:105230002432020808B5034B1BB103490348AFF3FE
:10524000008008BD000000003C020020243202085B
:1052500010F8012B11F8013B012A28BF9A42F7D020
:10526000D01A70470000000000000000000000009D
:1052700001F0FF01102A2BDB10F0070F08D010F807
:10528000013B013A8B422DD010F0070F42B3F6D10B
:10529000F0B441EA012141EA014122F007047FF024
:1052A00000070023F0E80256083C85EA010586EA7B
:1052B000010685FA47F5A3FA87F586FA47F6A5FAB7
:1052C00087F68EB9EED1F0BC01F0FF0102F00702C3
:1052D00032B110F8013B013A83EA010313B1F8D16E
:1052E0000020704701387047002D06BF354603384F
:1052F000073815F0010F07D1013015F4807F02BF88
:10530000013015F4C03F0130F0BC0138704700BFD8
:10531000034613F8012B002AFBD1181A01387047F5
:1053200080F0004002E000BF81F0004142001FBF5A
:105330005FEA410392EA030F7FEA226C7FEA236C63
:105340006AD04FEA1262D2EB1363C1BFD218414058
:1053500048404140B8BF5B42192B88BF704710F0EE
:10536000004F40F4000020F07F4018BF404211F091
:10537000004F41F4000121F07F4118BF494292EAF9
:10538000030F3FD0A2F1010241FA03FC10EB0C0025
:10539000C3F1200301FA03F100F0004302D54942B2
:1053A00060EB4000B0F5000F13D3B0F1807F06D35F
:1053B00040084FEA310102F10102FE2A51D2B1F157
:1053C000004F40EBC25008BF20F0010040EA03004C
:1053D0007047490040EB0000013A28BFB0F5000FCC
:1053E000EDD2B0FA80FCACF1080CB2EB0C0200FA82
:1053F0000CF0AABF00EBC25052421843BCBFD040D1
:105400001843704792F0000F81F4000106BF80F44A
:1054100000000132013BB5E74FEA41037FEA226C0D
:1054200018BF7FEA236C21D092EA030F04D092F0D8
:10543000000F08BF0846704790EA010F1CBF00200C
:10544000704712F07F4F04D1400028BF40F0004069
:10545000704712F100723CBF00F50000704700F089
:10546000004343F0FE4040F4000070477FEA2262B0
:1054700016BF08467FEA23630146420206BF5FEA81
:10548000412390EA010F40F4800070474FF0000381
:1054900004E000BF10F0004348BF40425FEA000C48
:1054A00008BF704743F0964301464FF000001CE0F0
:1054B00050EA010208BF70474FF000030AE000BF46
:1054C00050EA010208BF704711F0004302D5404284
:1054D00061EB41015FEA010C02BF844601460020F6
:1054E00043F0B64308BFA3F18053A3F50003BCFA11
:1054F0008CF2083AA3EBC25310DB01FA02FC6344BE
:1055000000FA02FCC2F12002BCF1004F20FA02F2C4
:1055100043EB020008BF20F00100704702F12002B7
:1055200001FA02FCC2F1200250EA4C0021FA02F218
:1055300043EB020008BF20EADC7070474FF0FF0C1D
:105540001CEAD0521EBF1CEAD15392EA0C0F93EA18
:105550000C0F6FD01A4480EA010C400218BF5FEABA
:1055600041211ED04FF0006343EA501043EA51112D
:10557000A0FB01310CF00040B1F5000F3EBF490027
:1055800041EAD3715B0040EA010062F17F02FD2A2B
:105590001DD8B3F1004F40EBC25008BF20F001000E
:1055A000704790F0000F0CF0004C08BF49024CEA25
:1055B000502040EA51207F3AC2BFD2F1FF0340EAB7
:1055C000C250704740F400004FF00003013A5DDC28
:1055D00012F1190FDCBF00F000407047C2F1000269
:1055E000410021FA02F1C2F1200200FA02FC5FEA56
:1055F000310040F1000053EA4C0308BF20EADC70A0
:10560000704792F0000F00F0004C02BF400010F411
:10561000000F013AF9D040EA0C0093F0000F01F0BE
:10562000004C02BF490011F4000F013BF9D041EAE0
:105630000C018FE70CEAD15392EA0C0F18BF93EAE2
:105640000C0F0AD030F0004C18BF31F0004CD8D10C
:1056500080EA010000F00040704790F0000F17BF93
:1056600090F0004F084691F0000F91F0004F14D0D9
:1056700092EA0C0F01D142020FD193EA0C0F03D131
:105680004B0218BF084608D180EA010000F0004034
:1056900040F0FE4040F40000704740F0FE4040F40F
:1056A000400070474FF0FF0C1CEAD0521EBF1CEAAE
:1056B000D15392EA0C0F93EA0C0F69D0A2EB0302CC
:1056C00080EA010C49024FEA402037D04FF0805366
:1056D00043EA111143EA10130CF000408B4238BF2B
:1056E0005B0042F17D024FF4000C8B4224BF5B1A39
:1056F00040EA0C00B3EB510F24BFA3EB510340EA87
:105700005C00B3EB910F24BFA3EB910340EA9C0034
:10571000B3EBD10F24BFA3EBD10340EADC001B01A4
:1057200018BF5FEA1C1CE0D1FD2A3FF650AF8B4248
:1057300040EBC25008BF20F0010070470CF0004C55
:105740004CEA50207F32C2BFD2F1FF0340EAC25080
:10575000704740F400004FF00003013A37E792F041
:10576000000F00F0004C02BF400010F4000F013A9F
:10577000F9D040EA0C0093F0000F01F0004C02BF9A
:10578000490011F4000F013BF9D041EA0C0195E703
:105790000CEAD15392EA0C0F08D142027FF47DAF9C
:1057A00093EA0C0F7FF470AF084676E793EA0C0F8C
:1057B00004D14B023FF44CAF08466EE730F0004C8A
:1057C00018BF31F0004CCAD130F000427FF45CAF1A
:1057D00031F000437FF43CAF5FE700BF4FF0FF3C88
:1057E00006E000BF4FF0010C02E000BF4FF0010CDB
:1057F0004DF804CD4FEA40024FEA41037FEA226CA4
:1058000018BF7FEA236C11D001B052EA530C18BFC5
:1058100090EA010F58BFB2EB030088BFC81738BF2A
:105820006FEAE17018BF40F0010070477FEA226C18
:1058300002D15FEA402C05D17FEA236CE4D15FEA14
:10584000412CE1D05DF8040B704700BF8446084648
:105850006146FFE70FB5FFF7C9FF002848BF10F109
:10586000000F0FBD4DF808EDFFF7F4FF0CBF01204E
:1058700000205DF808FB00BF4DF808EDFFF7EAFFD8
:1058800034BF012000205DF808FB00BF4DF808ED93
:10589000FFF7E0FF94BF012000205DF808FB00BF88
:1058A0004DF808EDFFF7D2FF94BF012000205DF80E
:1058B00008FB00BF4DF808EDFFF7C8FF34BF01201B
:1058C00000205DF808FB00BF42000ED2B2F1FE4F8F
:1058D0000BD34FF09E03B3EB126209D44FEA0023BF
:1058E00043F0004323FA02F070474FF00000704786
:1058F00012F1610F01D1420202D14FF0FF30704727
:105900004FF00000704700BF7BB972B90029BEBFDD
:1059100000204FF0004106E008BF00281CBF6FF0D8
:1059200000414FF0FF3000F0B5B9ADF1080C6DE962
:1059300004CE002909DB002B1ADB00F04DF8DDF85E
:1059400004E0DDE9022304B07047404261EB41010D
:10595000002B1BDB00F040F8DDF804E0DDE902235A
:1059600004B0404261EB4101524263EB4303704794
:10597000524263EB430300F02FF8DDF804E0DDE969
:10598000022304B0404261EB41017047524263EB95
:10599000430300F021F8DDF804E0DDE9022304B060
:1059A000524263EB4303704753B94AB9002908BF19
:1059B00000281CBF4FF0FF314FF0FF3000F06AB9F4
:1059C000ADF1080C6DE904CE00F006F8DDF804E056
:1059D000DDE9022304B070472DE9F047089D0C462D
:1059E000002B4ED194468C458646B2FA82F262D99B
:1059F0004AB1C2F12003914020FA03F30CFA02FCF1
:105A0000194300FA02FE4FEA1C471FFA8CF6B1FB5D
:105A1000F7F44FEA1E4307FB141143EA014304FB6A
:105A200006F199420AD91CEB030304F1FF3080F020
:105A30001281994240F20F81023C6344591A1FFAC5
:105A40008EF3B1FBF7F007FB101143EA014300FBB3
:105A500006F69E420AD91CEB030300F1FF3180F0E9
:105A6000FC809E4240F2F980634402389B1B40EA6E
:105A7000044000211DB1D3400022C5E90032BDE839
:105A8000F0878B4205D90DB1C5E900010021084618
:105A9000F5E7B3FA83F1002946D1A34202D390423D
:105AA000C0F0F080861A64EB03030120002DE6D0DD
:105AB000C5E90063E3E7002A40F09080A1EB0C0405
:105AC0004FEA1C481FFA8CF70121B4FBF8F64FEAA5
:105AD0001E4308FB164443EA044307FB06F09842C2
:105AE00008D91CEB030306F1FF3402D2984200F2FE
:105AF000CD8026461C1A1FFA8EF3B4FBF8F008FB83
:105B0000104443EA044300FB07F79F4208D91CEB0B
:105B1000030300F1FF3402D29F4200F2B08020461E
:105B2000DB1B40EA0640A5E7C1F120068B4022FAC4
:105B300006F71F4320FA06FC04FA01F343EA0C03BC
:105B4000F44000FA01F8380C4FEA1349B4FBF0FEB8
:105B50001FFA87FC00FB1E4449EA04440EFB0CF9C3
:105B6000A14502FA01F20AD93C190EF1FF3A80F080
:105B70008480A14540F28180AEF1020E3C44A4EB4A
:105B800009041FFA83F9B4FBF0F300FB134449EA5C
:105B9000044403FB0CFCA44507D93C1903F1FF3076
:105BA00067D2A44565D9023B3C4443EA0E40A0FBC2
:105BB0000293A4EB0C049C42CE469C4651D34ED09B
:105BC00055B1B8EB0E0364EB0C0404FA06F6CB40B7
:105BD0001E43CC40C5E90064002150E7C2F1200318
:105BE00020FA03F10CFA02FC24FA03F394400C436C
:105BF0004FEA1C4800FA02FE1FFA8CF7B3FBF8F0DC
:105C000008FB1031230C43EA014300FB07F19942E2
:105C100008D91CEB030300F1FF362CD299422AD994
:105C2000023863445B1AA4B2B3FBF8F108FB1133EA
:105C300044EA034401FB07F3A34208D91CEB040424
:105C400001F1FF3613D2A34211D902396444E41A98
:105C500041EA004139E70446F0E6084606E7C84550
:105C6000AED2B9EB020E63EB070C0138A8E7314660
:105C7000EDE7034699E73046D4E7D6467FE763442D
:105C800002384DE70646234608460FE7023E6344C6
:105C900030E700BF704700BF80B582B000AF034659
:105CA000FB71FB79002B05D101222021064801F070
:105CB00096FE05E001224FF48071034801F08FFE4B
:105CC00000BF0837BD4680BD0004004880B582B0E3
:105CD00000AF0346FB71FB79002B05D10022202188
:105CE000064801F07CFE05E000224FF48071034875
:105CF00001F075FE00BF0837BD4680BD00040048B6
:105D000080B485B000AF78600D4B1B680D4AA2FBD4
:105D100003235A0A7B6802FB03F3FB600023BB608A
:105D200003E000BFBB680133BB60BB68FA689A42FE
:105D3000F7D800BF00BF1437BD4680BC704700BF16
:105D400004000020D34D621080B584B000AF7860AD
:105D50000023FB7311E0FB7B0C4A52F823301946F9
:105D60007868FFF775FA0346002B03D1FB7B0133FC
:105D7000DBB206E0FB7B0133FB73FB7B152BEAD91F
:105D8000002318461037BD4680BD00BF945B020853
:105D900080B586B000AF78603960224A3B681360F6
:105DA0004FF0500383F31188BFF36F8FBFF34F8F12
:105DB000BB6000BF3B681C4A50211C481AF0C6FA61
:105DC00038613B69002B05DD3B699BB219461748DA
:105DD00013F034FB3868FFF7B7FF0346FB73FB7B18
:105DE000002B04D10120FFF757FF00BFFDE7002380
:105DF000FB750EE00120FFF74FFF3220FFF780FF19
:105E00000120FFF763FF3220FFF77AFFFB7D0133AC
:105E1000FB75FA7DFB7B9A42ECD34FF4FA60FFF7F7
:105E20006FFFE4E7540200206833020858020020A4
:105E300080B500AF00220F216FF0010001F061FB7F
:105E400000BF80BD80B485B000AF78604FF0B04334
:105E50001A6E4FF0B0417B6813430B664FF0B043AE
:105E60001A6E7B681340FB60FB6800BF1437BD46A9
:105E700080BC704780B58CB000AF78600023BB62F7
:105E800000237B62002387F82F304FF40030FFF7A8
:105E9000D9FF07F1080207F10C031146184602F07A
:105EA00065FE02F051FEB862BB6A214AA2FB0323E1
:105EB0009B0C013B7B621F4B1F4A1A601D4B40F23B
:105EC000E732DA601B4A7B6A53601A4B00221A6180
:105ED000184B00229A60174805F03EF9034687F8F0
:105EE0002F3097F82F30002B1BD1124805F08CF97A
:105EF000034687F82F3097F82F30002B11D11C2044
:105F000001F019FB7B680F2B08D8002279681C2050
:105F100001F0F7FA094A7B68136002E0012387F871
:105F20002F3097F82F3018463037BD4680BD00BF60
:105F300083DE1B43A802002000440140080000202B
:105F400080B400AF00BFFDE780B487B000AF0D4B59
:105F50009B6A7B610B4BDB6A3B610A4B5B6BFB60B3
:105F6000084B9B6BBB60084B1B697B60064B5B69F6
:105F70003B607B693B69FB68BB687B683B6800BE34
:105F800000BFFDE700ED00E00040005880B400AF26
:105F900000BFFDE780B487B000AF0B4B9B6A7B610D
:105FA000094BDB6A3B61084B9B6BFB60074B1B6932
:105FB000BB60064B5B697B607B693B69FB68BB68C8
:105FC0007B6800BE00BFFDE700ED00E00040005828
:105FD00080B400AF00BFFDE780B400AF00BFBD4696
:105FE00080BC704780B500AF024803F087FA00BF5D
:105FF00080BD00BF7003002080B500AF024803F0F1
:1060000035F900BF80BD00BF7003002080B500AF30
:10601000024800F007FD00BF80BD00BF0C03002058
:1060200080B500AF024805F03BF900BF80BD00BF5E
:106030009004002080B500AF024805F031F900BFA0
:1060400080BD00BFA802002080B500AF024807F065
:1060500091FF00BF80BD00BF0038014080B500AF98
:10606000024807F087FF00BF80BD00BF004400402A
:1060700080B500AF024804F0CDFE00BF80BD00BF78
:106080008004002080B400AF01231846BD4680BCC8
:10609000704780B582B000AF786039601BF0F8FBC4
:1060A000034616221A604FF0FF3318460837BD46E4
:1060B00080BD80B582B000AF78604FF0FF31786866
:1060C000FFF7E7FF00BFFDE780B586B000AFF860DF
:1060D000B9607A6000237B610AE0AFF3008001467B
:1060E000BB685A1CBA60CAB21A707B6901337B6103
:1060F0007A697B689A42F0DB7B6818461837BD46A0
:1061000080BD80B586B000AFF860B9607A600023CA
:106110007B6109E0BB685A1CBA601B781846AFF374
:1061200000807B6901337B617A697B689A42F1DB8D
:106130007B6818461837BD4680BD80B483B000AF79
:1061400078604FF0FF3318460C37BD4680BC70476F
:1061500080B483B000AF786039603B684FF4005280
:106160005A60002318460C37BD4680BC704780B487
:1061700083B000AF7860012318460C37BD4680BC61
:10618000704780B485B000AFF860B9607A600023D2
:1061900018461437BD4680BC7047000080B586B0F5
:1061A00000AF7860144A154BD31A7B617B693B6161
:1061B000134B1B68002B02D1114B124A1A60104B73
:1061C0001A687B6813443A699A4207D21BF060FB55
:1061D00003460C221A604FF0FF3309E0084B1B689E
:1061E000FB60074B1A687B681344054A1360FB6821
:1061F00018461837BD4680BD00000120000400008D
:10620000F802002048F3002080B400AF034B044A9A
:106210009A6000BFBD4680BC704700BF00ED00E043
:10622000005000080D488546FFF7EEFF0C480D4969
:106230000D4A002302E0D458C4500433C4188C42E1
:10624000F9D30A4A0A4C002301E013600432A24247
:10625000FBD31BF023FB19F051FCFEE700000120EB
:106260000000002038020020786602083802002072
:1062700048F30020FEE7000080B582B000AF0023A5
:10628000FB71032001F032F902F038FC0346094AA1
:1062900013600F20FFF7EEFD0346002B02D0012311
:1062A000FB7101E0FFF7C4FDFB7918460837BD46D6
:1062B00080BD00BF0400002080B400AF054B1B78F8
:1062C0001A46054B1B681344034A136000BFBD46C2
:1062D00080BC70470C000020FC02002080B400AF9E
:1062E000024B1B681846BD4680BC7047FC0200206C
:1062F00080B400AF024B1B681846BD4680BC704797
:106300009075FF1F80B400AF024B1B681846BD4656
:1063100080BC70479475FF1F80B400AF024B1B68B0
:106320001846BD4680BC70479875FF1F80B483B087
:1063300000AF786039607B681B6823F0E0723B68CF
:106340001A437B681A6000BF0C37BD4680BC70479B
:1063500080B483B000AF78607B681B6803F0E073A3
:1063600018460C37BD4680BC704780B485B000AF7E
:10637000F860B9607A60FB685A69BB6803F004038F
:10638000072101FA03F3DB431A40BB6803F004035F
:10639000796801FA03F31A43FB685A6100BF1437A6
:1063A000BD4680BC704780B483B000AF7860396070
:1063B0007B685A693B6803F00403072101FA03F381
:1063C0001A403B6803F0040322FA03F318460C3723
:1063D000BD4680BC704780B483B000AF78607B68F6
:1063E000DB6803F44063002B01D1012300E00023AC
:1063F00018460C37BD4680BC704780B485B000AFEE
:10640000F860B9607A60FB689A6ABB6803F01F03A2
:106410000F2101FA03F3DB431A407B689B0E03F064
:106420000F01BB6803F01F0301FA03F31A43FB6873
:106430009A6200BF1437BD4680BC704780B483B0F9
:1064400000AF786039607B689A6A3B68C3F31103D8
:106450001A437B689A6200BF0C37BD4680BC704708
:1064600080B483B000AF786039607B689A6A3B681B
:10647000C3F31103DB431A407B689A6200BF0C37F9
:10648000BD4680BC704780B483B000AF78607B6845
:10649000DB6803F0030318460C37BD4680BC704729
:1064A00080B485B000AFF860B9607A60FB685A6963
:1064B000BB681B02DB431A40BB6819027B680B40B8
:1064C00023F07C4323F0FF031A43FB685A6100BFAB
:1064D0001437BD4680BC704780B483B000AF78608D
:1064E0007B689B6823F0104323F0170343F080522E
:1064F0007B689A6000BF0C37BD4680BC704780B493
:1065000083B000AF78607B689B6803F08053B3F181
:10651000805F01D1012300E0002318460C37BD46FF
:1065200080BC704780B483B000AF78607B689B68A4
:1065300023F0004323F0170343F001027B689A60C5
:1065400000BF0C37BD4680BC704780B483B000AF3D
:1065500078607B689B6823F0004323F0170343F0C7
:1065600002027B689A6000BF0C37BD4680BC704752
:1065700080B483B000AF78607B689B6803F0010350
:10658000012B01D1012300E0002318460C37BD4642
:1065900080BC704780B483B000AF78607B689B6834
:1065A00003F00203022B01D1012300E0002318466F
:1065B0000C37BD4680BC704780B483B000AF7860B4
:1065C0007B689B6823F0004323F0170343F0040229
:1065D0007B689A6000BF0C37BD4680BC704780B4B2
:1065E00083B000AF78607B689B6803F00403042BE2
:1065F00001D1012300E0002318460C37BD4680BCC2
:106600007047000080B588B000AF78600023FB774A
:106610000023BB6100237B610023FB607B68002BB0
:1066200001D101237EE17B681B69002B7B689B6D98
:10663000002B09D1786805F051FE7B680022DA65ED
:106640007B68002283F854207B681B681846FFF79C
:1066500056FF0346002B15D17B681B681846FFF7D1
:106660003BFF9E4B1B689B099D4AA2FB03239B0992
:1066700001335B00FB6002E0FB68013BFB60FB68F1
:10668000002BF9D17B681B681846FFF738FF0346DB
:10669000002B0DD17B689B6D43F010027B689A65DF
:1066A0007B68DB6D43F001027B68DA650123FB77D1
:1066B0007B681B681846FFF792FF38617B689B6D0B
:1066C00003F01003002B40F024813B69002B40F0C5
:1066D00020817B689B6D23F4817343F002027B6809
:1066E0009A657B681B681846FFF742FF0346002B3C
:1066F00040F0A7807B689A687B681B7E9B031A43E7
:106700007B685B7EDB031A437B689B7E5B031343E2
:106710007A68126B002A02D04FF4805200E0002207
:106720001A437B68DB681A437B681B69002B04DA19
:106730007B681B6923F0004301E04FF400131A4308
:106740007B6893F82C305B001343BA691343BB6139
:106750007B6893F82030012B14D17B689B7E002B43
:1067600004D1BB6943F48033BB610BE07B689B6D54
:1067700043F020027B689A657B68DB6D43F0010281
:106780007B68DA657B685B6A002B09D07B685B6A93
:1067900003F4E0727B689B6A1343BA691343BB61DD
:1067A0007B681B68DB6823F4FE3323F4FF737A688D
:1067B0001268B9690B43D3607B685B6803F04042A1
:1067C0007B68DB6C13437A6913437B617B6893F8C6
:1067D0003C30012B11D17B685B6803F040427B6841
:1067E0001B6C1A437B685B6C1A437B689B6C1A4377
:1067F0007B69134343F001037B617B681B681A6963
:10680000384B13407A68126879690B4313617B68CF
:106810005B68B3F1404F14D07B685B68B3F1804F85
:106820000FD07B685B68B3F1004F0AD02E4B1B681A
:1068300023F470127B685B6803F470132A491343D6
:106840000B607B6818687B685B6B1A460021FFF75A
:106850008CFD7B6818687B689B6B1A462349FFF7A1
:1068600084FD7B681B69002B08D17B681B689A6AD2
:106870007B681B6862F00F029A6217E07B681B69F5
:10688000B3F5001F12D17B681B689B6A7B68DB69CC
:10689000013B9B0003F01C036FF00F0202FA03F1AF
:1068A0007B681A6E7B681B680A439A627B681B6868
:1068B00000211846FFF777FD02467B685B6B9A4222
:1068C00016D17B680022DA657B689B6D23F0030399
:1068D00043F001027B689A6523E000BF04000020BA
:1068E000632D3E0502FCFF1F0827014004FFFF0344
:1068F0007B689B6D23F0120343F010027B689A655E
:106900007B68DB6D43F001027B68DA650123FB776E
:1069100007E07B689B6D43F010027B689A6501235A
:10692000FB77FB7F18462037BD4680BD80B584B01D
:1069300000AF78607B681B681846FFF750FE03467F
:10694000002B5CD17B6893F85430012B01D10223DA
:1069500058E07B68012283F85420786800F0C6FA7A
:106960000346FB73FB7B002B44D17B689B6D23F4B8
:10697000706323F0010343F480727B689A657B683F
:106980000022DA657B681B681C221A607B68002283
:1069900083F854207B681B685A687B681B6822F068
:1069A0001C025A607B685B69082B08D17B681B68F6
:1069B0005A687B681B6842F008025A6008E07B68EE
:1069C0001B685A687B681B6842F004025A6000BF6B
:1069D0007B681B6B002B07D17B681B685A687B6840
:1069E0001B6842F010025A607B681B681846FFF76C
:1069F000E3FD06E07B68002283F8542001E00223D7
:106A0000FB73FB7B18461037BD4680BD80B483B056
:106A100000AF78607B681B681B6C18460C37BD465E
:106A200080BC704780B586B000AF786000237B6182
:106A30007B681B681B683B617B681B685B68FB604D
:106A40003B6903F00203002B17D0FB6803F002033D
:106A5000002B12D07B689B6D03F01003002B05D137
:106A60007B689B6D43F400627B689A65786800F0F0
:106A700081FC7B681B6802221A603B6903F00403F7
:106A8000002B04D0FB6803F00403002B09D13B6901
:106A900003F00803002B51D0FB6803F00803002B20
:106AA0004CD07B689B6D03F01003002B05D17B68F5
:106AB0009B6D43F400727B689A657B681B6818467F
:106AC000FFF789FC0346002B31D07B689B7E002BAF
:106AD0002DD17B681B681B6803F00803082B26D1A7
:106AE0007B681B681846FFF77AFD0346002B12D11E
:106AF0007B681B685A687B681B6822F00C025A602E
:106B00007B689B6D23F4807323F0010343F0010243
:106B10007B689A650BE07B689B6D43F020027B6885
:106B20009A657B68DB6D43F001027B68DA65786803
:106B300005F0D6FC7B681B680C221A603B6903F0E9
:106B40008003002B11D0FB6803F08003002B0CD0D6
:106B50007B689B6D43F480327B689A65786800F0AF
:106B60007BF87B681B6880221A603B6903F48073A2
:106B7000002B12D0FB6803F48073002B0DD07B68D0
:106B80009B6D43F400327B689A65786800F0E0FB07
:106B90007B681B684FF480721A603B6903F40073D2
:106BA000002B12D0FB6803F40073002B0DD07B6820
:106BB0009B6D43F480227B689A65786800F0D1FB76
:106BC0007B681B684FF400721A603B6903F0100386
:106BD000002B2BD0FB6803F01003002B26D07B6822
:106BE0001B6B002B02D101237B6109E07B681B68D2
:106BF0001846FFF748FC0346002B01D001237B61B8
:106C00007B69012B0ED17B689B6D43F480627B68AE
:106C10009A657B68DB6D43F002027B68DA65786811
:106C200000F023F87B681B6810221A603B6903F4AC
:106C30000053002B0CD0FB6803F40053002B07D04B
:106C4000786800F0A0FB7B681B684FF400521A6064
:106C500000BF1837BD4680BD80B483B000AF7860F8
:106C600000BF0C37BD4680BC704780B483B000AF16
:106C7000786000BF0C37BD4680BC704780B588B0D7
:106C800000AF786039600023FB770023BB607B682E
:106C90001B69B3F1004F7B6893F85430012B01D18D
:106CA000022310E17B68012283F854207B681B6873
:106CB0001846FFF794FC0346002B40F0F7803B6832
:106CC0005B68022B00F0B1807B681B69B3F1004F59
:106CD00004D07B681B697E4A934208D17B681A689E
:106CE0003B681B6819461046FFF7A8FB41E07B682C
:106CF0001A6E3B685B6803F01F030F2101FA03F370
:106D0000DB431A403B681B68C3F31103002B05D11A
:106D10003B681B689B0E03F01F0311E03B681B6878
:106D20003B613B6993FAA3F3FB60FB687B617B6982
:106D3000002B01D1202303E07B69B3FA83F3DBB29C
:106D40003968496801F01F018B401A437B681A6655
:106D50003B685B689B085A1C7B68DB699A4208D8D1
:106D60007B6818683B6859683B681B681A46FFF7E0
:106D700044FB7B6818683B6819683B689B681A4647
:106D8000FFF78EFB3B681B68002B80F29780514811
:106D9000FFF7DEFAB8613B681B684F4A934220D187
:106DA000BB6903F40003002B1BD1BB6943F4000350
:106DB00019464848FFF7BAFA484B1B689B09484AEE
:106DC000A2FB03239B095A1C13465B0013449B0040
:106DD000BB6002E0BB68013BBB60BB68002BF9D124
:106DE0006CE03B681B683F4A93420CD1BB6903F0DF
:106DF0008073002B07D1BB6943F080731946354877
:106E0000FFF794FA5AE03B681B68374A934255D122
:106E1000BB6903F48003002B50D1BB6943F48003AA
:106E200019462C48FFF782FA48E07B681B69B3F1EA
:106E3000004F04D07B681B69254A934207D17B68C9
:106E40001A683B681B6819461046FFF709FB3B6848
:106E50001B68002B32DA1F48FFF77AFAB8613B68EB
:106E60001B681D4A934207D1BB6923F400031946EE
:106E70001848FFF75BFA21E03B681B68194A934208
:106E800007D1BB6923F0807319461248FFF74EFA09
:106E900014E03B681B68144A93420FD1BB6923F48A
:106EA000800319460B48FFF741FA07E07B689B6DAA
:106EB00043F020027B689A650123FB777B68002200
:106EC00083F85420FB7F18462037BD4680BD00BFA5
:106ED0000400008008270140001000B004000020DA
:106EE000632D3E05004000B8002000B480B584B09A
:106EF00000AF78600023BB607B681B681846FFF713
:106F000037FB0346002B69D17B681B689A68364BB8
:106F10001340002B0DD07B689B6D43F010027B6803
:106F20009A657B68DB6D43F001027B68DA650123BB
:106F300055E07B681B681846FFF7F4FA2B48FFF70B
:106F400007FA034603F40003002B0FD0284B1B68FD
:106F50009B09284AA2FB03239B090133BB6002E083
:106F6000BB68013BBB60BB68002BF9D17B685B7ED3
:106F7000012B33D0FFF7B2F9F86028E07B681B687B
:106F80001846FFF7F5FA0346002B04D17B681B680F
:106F90001846FFF7C7FAFFF7A1F90246FB68D31AB4
:106FA000022B14D97B681B681B6803F00103012BBB
:106FB0000DD07B689B6D43F010027B689A657B68FF
:106FC000DB6D43F001027B68DA65012307E07B6833
:106FD0001B681B6803F00103012BCFD10023184667
:106FE0001037BD4680BD00BF170000800827014054
:106FF00004000020632D3E0580B584B000AF7860AA
:107000007B681B681846FFF7C5FAF8607B681B6849
:107010001846FFF7ADFA0346002B47D0FB68002B5C
:1070200044D17B681B689B6803F00503012B0CD1DE
:107030007B681B681846FFF788FA7B681B68032289
:107040001A60FFF74BF9B86029E07B689B6D43F04D
:1070500010027B689A657B68DB6D43F001027B68F8
:10706000DA65012323E0FFF739F90246BB68D31A3A
:10707000022B14D97B681B689B6803F00103002B6B
:107080000DD07B689B6D43F010027B689A657B682E
:10709000DB6D43F001027B68DA65012307E07B6862
:1070A0001B689B6803F00103002BDCD1002318460A
:1070B0001037BD4680BD80B483B000AF78603960C2
:1070C0007B68D3F8B43023F07F023B681A437B68B7
:1070D000C3F8B42000BF0C37BD4680BC704780B4F5
:1070E00083B000AF78607B68D3F8B43003F07F03DF
:1070F00018460C37BD4680BC704780B483B000AFE3
:1071000078607B689B6823F0004323F0170343F00B
:1071100001027B689A6000BF0C37BD4680BC704797
:1071200080B483B000AF78607B689B6823F0004335
:1071300023F0170343F002027B689A6000BF0C370C
:10714000BD4680BC704780B483B000AF78607B6878
:107150009B6803F00103012B01D1012300E0002310
:1071600018460C37BD4680BC704780B483B000AF72
:1071700078607B689B6823F0004323F0170343F09B
:1071800000427B689A6000BF0C37BD4680BC7047E8
:1071900080B483B000AF78607B689B6803F00043E5
:1071A000B3F1004F01D1012300E0002318460C3752
:1071B000BD4680BC704780B588B000AF78600023C2
:1071C000BB600023BB617B6893F85430012B01D175
:1071D0000223B9E07B68012283F854207868FFF726
:1071E0000BFF0346FB757B681B681846FFF7ABFF78
:1071F0000346002B40F09D807B689B6D23F48173D8
:1072000043F002027B689A657B681B68DA6848F283
:10721000030313403B617B681B68DB687A68126874
:1072200023F4004323F00303D3600023FB612EE02B
:107230007B681B681846FFF798FF14E0BB680133B2
:10724000BB60BB68B3F52E3F0DD37B689B6D23F00D
:10725000120343F010027B689A657B68002283F872
:107260005420012370E07B681B681846FFF790FFED
:107270000346002BE2D17B681B681846FFF72FFFFF
:107280000246BB691344BB61FB690133FB61FB69C7
:10729000072BCDD9BA69FB69B2FBF3F3BB617B68FD
:1072A0001B681846FFF729FF7B681B68B9691846F9
:1072B000FFF701FF7B681B681846FFF731FFFFF7F8
:1072C0000DF8F8601CE0FFF709F80246FB68D31AD6
:1072D000022B15D97B681B681846FFF734FF03465D
:1072E000002B0DD07B689B6D43F010027B689A6584
:1072F0007B68DB6D43F001027B68DA65012323E0E4
:107300007B681B681846FFF71EFF0346002BDAD187
:107310007B681B68D9687B681B683A690A43DA6036
:107320007B689B6D23F0030343F001027B689A6541
:1073300005E07B689B6D43F010027B689A657B6873
:10734000002283F85420FB7D18462037BD4680BDBF
:1073500080B483B000AF786000BF0C37BD4680BCFE
:10736000704780B483B000AF786000BF0C37BD4673
:1073700080BC704780B483B000AF786000BF0C372A
:10738000BD4680BC704780B483B000AF786000BF5A
:107390000C37BD4680BC704780B485B000AF7860C4
:1073A0007B6803F00703FB600C4BDB68BB60BA68CB
:1073B0004FF6FF031340BB60FB681A02BB68134320
:1073C00043F0BF6343F40033BB60044ABB68D3603F
:1073D00000BF1437BD4680BC704700BF00ED00E021
:1073E00080B400AF044BDB681B0A03F007031846A8
:1073F000BD4680BC704700BF00ED00E080B483B0A4
:1074000000AF0346FB7197F90730002B0BDBFB79CC
:1074100003F01F02064997F907305B09012000FAC3
:1074200002F241F8232000BF0C37BD4680BC7047F4
:1074300000E100E080B483B000AF03463960FB7127
:1074400097F90730002B0ADB3B68DAB20C4997F951
:1074500007301201D2B20B4483F800230AE03B68E4
:10746000DAB20849FB7903F00F03043B1201D2B2F0
:107470000B441A7600BF0C37BD4680BC704700BF76
:1074800000E100E000ED00E080B489B000AFF860FA
:10749000B9607A60FB6803F00703FB61FB69C3F125
:1074A0000703042B28BF0423BB61FB690433062BAD
:1074B00002D9FB69033B00E000237B614FF0FF3200
:1074C000BB6902FA03F3DA43BB681A407B699A404E
:1074D0004FF0FF317B6901FA03F3D9437B680B401E
:1074E000134318462437BD4680BC704780B582B030
:1074F00000AF78607868FFF74FFF00BF0837BD46E0
:1075000080BD80B586B000AF0346B9607A60FB737A
:10751000FFF766FF78617A68B9687869FFF7B4FFAA
:10752000024697F90F3011461846FFF783FF00BF58
:107530001837BD4680BD80B582B000AF0346FB71F1
:1075400097F907301846FFF759FF00BF0837BD46C7
:1075500080BD000080B487B000AF78603960002340
:107560007B6140E13B681A6801217B6901FA03F302
:107570001340FB60FB68002B00F032813B685B68C6
:1075800003F00303012B05D03B685B6803F00303A2
:10759000022B30D17B689B683B617B695B000322D7
:1075A00002FA03F3DB433A6913403B613B68DA6854
:1075B0007B695B0002FA03F33A6913433B617B6822
:1075C0003A699A607B685B683B6101227B6902FAD9
:1075D00003F3DB433A6913403B613B685B681B097B
:1075E00003F001027B6902FA03F33A6913433B613A
:1075F0007B683A695A603B685B6803F00303032BBE
:1076000017D07B68DB683B617B695B00032202FA71
:1076100003F3DB433A6913403B613B689A687B693B
:107620005B0002FA03F33A6913433B617B683A69F2
:10763000DA603B685B6803F00303022B23D17B69AC
:10764000DA087B68083253F822303B617B6903F02B
:1076500007039B000F2202FA03F3DB433A6913404E
:107660003B613B681A697B6903F007039B0002FAE0
:1076700003F33A6913433B617B69DA087B6808329C
:10768000396943F822107B681B683B617B695B00AA
:10769000032202FA03F3DB433A6913403B613B6880
:1076A0005B6803F003027B695B0002FA03F33A694B
:1076B00013433B617B683A691A603B685B6803F47B
:1076C0004033002B00F08C804E4A7B699B080233CC
:1076D00052F823303B617B6903F003039B000722D0
:1076E00002FA03F3DB433A6913403B617B68B3F171
:1076F000904F0DD07B68444A934207D07B68434A41
:10770000934201D1022304E0072302E0012300E0B9
:1077100000237A6902F00302920093403A6913430E
:107720003B6138497B699B0802333A6941F8232061
:10773000374B1B683B61FB68DB433A6913403B6195
:107740003B685B6803F48013002B03D03A69FB6845
:1077500013433B612E4A3B6913602D4B5B683B61D1
:10776000FB68DB433A6913403B613B685B6803F4A9
:107770000013002B03D03A69FB6813433B61244A92
:107780003B695360224BD3F880303B61FB68DB439D
:107790003A6913403B613B685B6803F48033002B1C
:1077A00003D03A69FB6813433B61194A3B69C2F84D
:1077B0008030174BD3F884303B61FB68DB433A6978
:1077C00013403B613B685B6803F40033002B03D03C
:1077D0003A69FB6813433B610D4A3B69C2F8843048
:1077E0007B6901337B613B681A687B6922FA03F38A
:1077F000002B7FF4B7AE00BF00BF1C37BD4680BC76
:10780000704700BF00000140000400480008004825
:107810000008005880B487B000AF7860396000235A
:107820007B61AFE001227B6902FA03F33A681340FF
:107830003B613B69002B00F0A280594A7B699B08A1
:10784000023352F82330FB607B6903F003039B0093
:10785000072202FA03F3FA681340FB607B68B3F176
:10786000904F0DD07B684F4A934207D07B684E4AB9
:10787000934201D1022304E0072302E0012300E048
:1078800000237A6902F0030292009340FA689A4258
:1078900036D1464BD3F880203B69DB434349134044
:1078A000C1F88030414BD3F884203B69DB433F492A
:1078B0001340C1F884303D4B1A683B69DB433B49B8
:1078C00013400B60394B5A683B69DB43374913401F
:1078D0004B607B6903F003039B00072202FA03F36A
:1078E000FB602F4A7B699B08023352F82310FB6828
:1078F000DA432B487B699B080A40023340F8232077
:107900007B681A687B695B00032101FA03F31A4361
:107910007B681A607B69DA087B68083253F82210AA
:107920007B6903F007039B000F2202FA03F3DB439A
:107930007A69D20819407B68083243F822107B68C4
:107940009A687B695B00032101FA03F3DB431A4069
:107950007B689A607B685A6801217B6901FA03F3AE
:10796000DB431A407B685A607B68DA687B695B009E
:10797000032101FA03F3DB431A407B68DA607B6979
:1079800001337B613A687B6922FA03F3002B7FF4B1
:1079900049AF00BF00BF1C37BD4680BC704700BF69
:1079A000000001400004004800080048000800589A
:1079B00080B485B000AF78600B467B807B681A6925
:1079C0007B881340002B02D00123FB7301E00023CE
:1079D000FB73FB7B18461437BD4680BC704780B4F0
:1079E00083B000AF78600B467B8013467B707B785A
:1079F000002B03D07A887B689A6102E07A887B68E2
:107A00009A6200BF0C37BD4680BC704780B584B019
:107A100000AF78607B68002B01D1012341E07B68D7
:107A20001B684CF6CC421A607B681B6845F25552C5
:107A30001A607B681B687A6852685A607B681B68AA
:107A40007A6892689A60FEF749FCF8600FE0FEF7EA
:107A500045FC0246FB68D31A312B08D97B681B68AA
:107A6000DB6803F00703002B01D0032319E07B68D8
:107A70001B68DB6803F00703002BE8D17B681B68F9
:107A80001A697B68DB689A4205D07B681B687A6854
:107A9000D2681A6104E07B681B684AF6AA221A6061
:107AA000002318461037BD4680BD80B483B000AFB8
:107AB00078607B681B684AF6AA221A600023184681
:107AC0000C37BD4680BC704780B400AF044B1B68C8
:107AD000034A43F48073136000BFBD4680BC704707
:107AE0000004005880B400AF034B1B6803F4C0636C
:107AF0001846BD4680BC70470004005880B483B06F
:107B000000AF0346FB71104B1B6823F007030E4ABE
:107B100043F0020313600D4B1B690C4A43F004034E
:107B20001361FB79012B01D130BF02E040BF20BFC0
:107B300020BF064B1B69054A23F00403136100BFF5
:107B40000C37BD4680BC70470004005800ED00E0D3
:107B500080B400AF064B1B6803F48073B3F5807FDD
:107B600001D1012300E000231846BD4680BC7047C8
:107B70000004005880B400AF4FF0B0431B684FF0D2
:107B8000B04243F40013136000BFBD4680BC704791
:107B900080B400AF4FF0B0431B684FF0B04223F405
:107BA0000013136000BFBD4680BC704780B400AFB7
:107BB0004FF0B0431B6803F48013B3F5801F01D16D
:107BC000012300E000231846BD4680BC704780B406
:107BD00000AF4FF0B0431B684FF0B04243F4803326
:107BE000136000BFBD4680BC704780B400AF4FF04B
:107BF000B0431B684FF0B04223F48033136000BFE2
:107C0000BD4680BC704780B400AF4FF0B0431B68E6
:107C100003F40033B3F5003F01D1012300E000235A
:107C20001846BD4680BC704780B400AF4FF0B043EB
:107C30001B684FF0B04243F48073136000BFBD4631
:107C400080BC704780B400AF4FF0B0431B684FF06A
:107C5000B04223F48073136000BFBD4680BC704700
:107C600080B400AF4FF0B0431B6803F48063B3F5FA
:107C7000806F01D1012300E000231846BD4680BC7F
:107C8000704780B483B000AF78604FF0B0435B685A
:107C900023F0FE427B681B064FF0B04113434B605C
:107CA00000BF0C37BD4680BC704780B400AF4FF0BA
:107CB000B043D3F8903003F00203022B01D101232B
:107CC00000E000231846BD4680BC704780B400AF7A
:107CD0004FF0B043D3F894304FF0B04243F001037B
:107CE000C2F8943000BFBD4680BC704780B400AF7E
:107CF0004FF0B043D3F894304FF0B04223F001037B
:107D0000C2F8943000BFBD4680BC704780B400AF5D
:107D10004FF0B043D3F8943003F00203022B01D1AB
:107D2000012300E000231846BD4680BC704780B4A4
:107D300000AF4FF0B0431B684FF0B04243F0010377
:107D4000136000BFBD4680BC704780B400AF4FF0E9
:107D5000B0431B684FF0B04223F00103136000BF33
:107D6000BD4680BC704780B400AF4FF0B0431B6885
:107D700003F00203022B01D1012300E00023184687
:107D8000BD4680BC704780B400AF4FF0B0431B6865
:107D900003F00803082B01D1012300E0002318465B
:107DA000BD4680BC704780B400AF4FF0B0431B6845
:107DB00003F0F0031846BD4680BC704780B400AFA6
:107DC0004FF0B043D3F8943003F470631846BD46C7
:107DD00080BC704780B483B000AF78604FF0B04390
:107DE0005B6823F47F427B681B024FF0B041134372
:107DF0004B6000BF0C37BD4680BC704780B483B079
:107E000000AF78604FF0B0439B6823F003024FF05F
:107E1000B0417B6813438B6000BF0C37BD4680BC0C
:107E2000704780B400AF4FF0B0439B6803F00C0381
:107E30001846BD4680BC704780B483B000AF786000
:107E40004FF0B0439B6823F0F0024FF0B0417B68E5
:107E500013438B6000BF0C37BD4680BC704780B4B5
:107E600083B000AF78604FF0B043D3F8083123F00F
:107E70000F027B681B094FF0B0411343C1F8083172
:107E800000BF0C37BD4680BC704780B483B000AFE4
:107E900078604FF0B0439B6823F4E0624FF0B0414C
:107EA0007B6813438B6000BF0C37BD4680BC7047B6
:107EB00080B483B000AF78604FF0B0439B6823F488
:107EC00060524FF0B0417B6813438B6000BF0C37AA
:107ED000BD4680BC704780B400AF4FF0B0439B6894
:107EE00003F0F0031846BD4680BC704780B400AF75
:107EF0004FF0B043D3F808311B0103F0F0031846EC
:107F0000BD4680BC704780B400AF4FF0B0439B6863
:107F100003F4E0631846BD4680BC704780B400AFF0
:107F20004FF0B0439B6803F460531846BD4680BCD5
:107F3000704780B400AF4FF0B0431B684FF0B042C1
:107F400043F08073136000BFBD4680BC704780B4AF
:107F500000AF4FF0B0431B684FF0B04223F0807386
:107F6000136000BFBD4680BC704780B400AF4FF0C7
:107F7000B0431B6803F00073B3F1007F01D101230C
:107F800000E000231846BD4680BC704780B400AFB7
:107F90004FF0B043DB681B0A03F07F031846BD4671
:107FA00080BC704780B400AF4FF0B043DB6803F093
:107FB00060431846BD4680BC704780B400AF4FF0A8
:107FC000B043DB6803F070031846BD4680BC7047C1
:107FD00080B400AF4FF0B043DB6803F003031846F2
:107FE000BD4680BC704780B400AF4FF0B0439B6883
:107FF00003F48033B3F5803F01D1012300E0002377
:108000001846BD4680BC704780B400AF4FF0B04307
:10801000D3F8083103F48033B3F5803F01D1012355
:1080200000E000231846BD4680BC704780B400AF16
:108030004FF0B0439B6803F40033B3F5003F01D128
:10804000012300E000231846BD4680BC704780B481
:1080500000AF4FF0B0439B6803F48023B3F5802F4B
:1080600001D1012300E000231846BD4680BC7047C3
:1080700080B588B000AF78607B68002B01D1012308
:108080006FE3FFF7CEFEF861FFF7A2FFB8617B68F0
:108090001B6803F02003002B00F0C480FB69002B59
:1080A00005D0FB690C2B76D1BB69012B73D17B68A2
:1080B0001B6A002B01D1012353E37B689A6A4FF0BE
:1080C000B0431B6803F00803002B05D04FF0B0430A
:1080D0001B6803F0F00306E04FF0B043D3F8943090
:1080E0001B0903F0F003934222D27B689B6A184677
:1080F00000F07AFD0346002B01D0012331E34FF05D
:10810000B0431B684FF0B04243F0080313604FF0D8
:10811000B0431B6823F0F0027B689B6A4FF0B041CC
:1081200013430B607B685B6A1846FFF753FE21E040
:108130004FF0B0431B684FF0B04243F008031360A8
:108140004FF0B0431B6823F0F0027B689B6A4FF04E
:10815000B04113430B607B685B6A1846FFF73AFE39
:108160007B689B6A184600F03FFD0346002B01D058
:108170000123F6E200F0C2FC0346A74A1360A74BB6
:108180001B681846FDF776FE0346FB74FB7C002B4C
:1081900047D0FB7CE5E27B681B6A002B2CD0FFF705
:1081A000C6FDFEF79BF8786108E0FEF797F80246F7
:1081B0007B69D31A022B01D90323D2E2FFF7D3FD47
:1081C0000346002BF1D04FF0B0431B684FF0B04294
:1081D00043F0080313604FF0B0431B6823F0F00234
:1081E0007B689B6A4FF0B04113430B607B685B6A0E
:1081F0001846FFF7EFFD15E0FFF7A7FDFEF76EF855
:10820000786108E0FEF76AF802467B69D31A022B10
:1082100001D90323A5E2FFF7A6FD0346002BF1D108
:1082200000E000BF7B681B6803F00103002B58D0FF
:10823000FB69082B05D0FB690C2B08D1BB69032B0C
:1082400005D17B685B68002B4BD1012389E24FF09D
:10825000B0431B6823F480127B689B684FF0B041E9
:1082600013430B607B685B68B3F5803F02D1FFF777
:10827000AEFC0DE07B685B68B3F5041F04D1FFF72B
:1082800079FCFFF7A4FC03E0FFF7AFFCFFF780FCED
:108290007B685B68002B12D0FEF720F8786108E05D
:1082A000FEF71CF802467B69D31A642B01D903231D
:1082B00057E2FFF7A8FC0346002BF1D011E0FEF7D0
:1082C0000DF8786108E0FEF709F802467B69D31AD9
:1082D000642B01D9032344E2FFF795FC0346002BEE
:1082E000F1D17B681B6803F00203002B46D0FB69C9
:1082F000042B05D0FB690C2B0ED1BB69022B0BD1D3
:108300007B681B69002B01D101232AE27B685B6932
:108310001846FFF7B6FC31E07B681B69002B19D0CB
:10832000FFF782FCFDF7DAFF786108E0FDF7D6FF82
:1083300002467B69D31A022B01D9032311E2FFF70E
:108340008FFC0346002BF1D07B685B691846FFF772
:1083500098FC13E0FFF776FCFDF7C0FF786108E0BA
:10836000FDF7BCFF02467B69D31A022B01D9032318
:10837000F7E1FFF775FC0346002BF1D17B681B6822
:1083800003F00803002B6ED07B689B69002B56D04E
:108390004FF0B043D3F89430FB607B68DA69FB6838
:1083A00003F010039A4231D0FB6803F00203002B64
:1083B00006D0FB6803F00103002B01D10123D0E1BB
:1083C000FB6803F00103002B13D0FFF78FFCFDF7D0
:1083D00085FF786108E0FDF781FF02467B69D31ACB
:1083E000112B01D90323BCE1FFF790FC0346002BBE
:1083F000F1D14FF0B043D3F8943023F010027B68F2
:10840000DB694FF0B0411343C1F89430FFF75EFCD5
:10841000FDF764FF78610CE00400002008000020F4
:10842000FDF75CFF02467B69D31A112B01D90323A8
:1084300097E1FFF76BFC0346002BF1D013E0FFF749
:1084400055FCFDF74BFF786108E0FDF747FF02465A
:108450007B69D31A112B01D9032382E1FFF756FC64
:108460000346002BF1D17B681B6803F00403002B4B
:1084700000F0D880FFF76CFB0346002B13D1FFF709
:1084800023FBFDF72BFF786108E0FDF727FF02468D
:108490007B69D31A022B01D9032362E1FFF758FB52
:1084A0000346002BF1D07B68DB68002B7BD07B6818
:1084B000DB68852B03D07B68DB68052B09D14FF087
:1084C000B043D3F890304FF0B04243F00403C2F809
:1084D0009030FDF703FF78614FF0B043D3F8903050
:1084E0004FF0B04243F00103C2F890300AE0FDF7CC
:1084F000F5FE02467B69D31A41F28832934201D9D4
:1085000003232EE1FFF7D1FB0346002BEFD07B685E
:10851000DB68812B03D07B68DB68852B21D1FDF7DD
:10852000DDFE78614FF0B043D3F890304FF0B042A9
:1085300043F08003C2F890300AE0FDF7CFFE024618
:108540007B69D31A41F28832934201D9032308E1AF
:108550004FF0B043D3F8903003F40063002BECD01D
:1085600060E0FDF7BBFE78614FF0B043D3F8903088
:108570004FF0B04223F08003C2F890300AE0FDF7DC
:10858000ADFE02467B69D31A41F28832934201D98B
:108590000323E6E04FF0B043D3F8903003F40063D8
:1085A000002BECD13EE0FDF799FE78614FF0B0432F
:1085B000D3F890304FF0B04223F08003C2F89030EF
:1085C0000AE0FDF78BFE02467B69D31A41F288323E
:1085D000934201D90323C4E04FF0B043D3F8903065
:1085E00003F40063002BECD1FDF778FE78614FF0C7
:1085F000B043D3F890304FF0B04223F00103C2F8FB
:1086000090300AE0FDF76AFE02467B69D31A41F218
:108610008832934201D90323A3E0FFF746FB0346C8
:10862000002BEFD17B68DB6A002B00F09980FB699F
:108630000C2B6CD07B68DB6A022B4BD1FFF787FCDD
:10864000FDF74CFE786108E0FDF748FE02467B69C5
:10865000D31A0A2B01D9032383E0FFF786FC0346D4
:10866000002BF1D14FF0B043DA68404B13407A68E9
:10867000116B7A68526B11437A68926B1202114344
:108680007A68D26B11437A68126C11437A68526C23
:108690000A434FF0B0411343CB60FFF74AFC4FF061
:1086A000B043DB684FF0B04243F08053D360FDF736
:1086B00015FE786108E0FDF711FE02467B69D31ACA
:1086C0000A2B01D903234CE0FFF74FFC0346002B94
:1086D000F1D045E0FFF73BFCFDF700FE786108E0D4
:1086E000FDF7FCFD02467B69D31A0A2B01D903234F
:1086F00037E0FFF73AFC0346002BF1D14FF0B043CF
:10870000DA684FF0B0411A4B1340CB6028E07B6829
:10871000DB6A012B01D1012323E04FF0B043DB687A
:10872000BB61BB6903F003027B681B6B9A4215D1E6
:10873000BB6903F070027B685B6B9A420ED1BB6928
:1087400003F4FE427B689B6B1B029A4206D1BB6915
:1087500003F060427B685B6C9A4201D0012300E029
:10876000002318462037BD4680BD00BF8C80C11154
:10877000FCFFFEEE80B584B000AF786039607B68A6
:10878000002B01D101230FE1894B1B6803F0070384
:108790003A689A421BD9864B1B6823F0070284492A
:1087A0003B6813430B60FDF799FDF86008E0FDF7A7
:1087B00095FD0246FB68D31A022B01D90323F3E08F
:1087C0007B4B1B6803F007033A689A42EFD17B6842
:1087D0001B6803F00203002B16D07B689B681846C9
:1087E000FFF72AFBFDF77AFDF86008E0FDF776FD5C
:1087F0000246FB68D31A022B01D90323D4E0FFF70A
:10880000F2FB0346002BF1D07B681B6803F04003AA
:10881000002B16D07B685B691846FFF720FBFDF73D
:108820005DFDF86008E0FDF759FD0246FB68D31ACC
:10883000022B01D90323B7E0FFF7E6FB0346002B29
:10884000F1D07B681B6803F00403002B16D07B6813
:10885000DB681846FFF719FBFDF740FDF86008E0FC
:10886000FDF73CFD0246FB68D31A022B01D9032316
:108870009AE0FFF7DBFB0346002BF1D07B681B6817
:1088800003F00803002B17D07B681B69DB00184638
:10889000FFF70EFBFDF722FDF86008E0FDF71EFD77
:1088A0000246FB68D31A022B01D903237CE0FFF7B1
:1088B000CEFB0346002BF1D07B681B6803F001035D
:1088C000002B43D07B685B68022B06D1FFF79BF936
:1088D0000346002B1ED1012366E07B685B68032BF7
:1088E00006D1FFF742FB0346002B13D101235BE0C7
:1088F0007B685B68002B06D1FFF735FA0346002B37
:1089000008D1012350E0FFF7ABF90346002B01D15A
:10891000012349E07B685B681846FFF76FFAFDF7B3
:10892000DDFCF8600AE0FDF7D9FC0246FB68D31ACB
:1089300041F28832934201D9032335E0FFF771FAFF
:1089400002467B685B689B009A42ECD1184B1B681F
:1089500003F007033A689A421BD2154B1B6823F0B9
:10896000070213493B6813430B60FDF7B7FCF8603F
:1089700008E0FDF7B3FC0246FB68D31A022B01D9CD
:10898000032311E00A4B1B6803F007033A689A427D
:10899000EFD100F0B3F80346064A1360064B1B689C
:1089A0001846FDF767FA034618461037BD4680BDE6
:1089B00000400058040000200800002090B587B057
:1089C00000AF00237B6100233B61FFF72AFAB86008
:1089D000FFF7FEFA7860BB68002B05D0BB680C2B54
:1089E00039D17B68012B36D1FFF7CDF90346002B37
:1089F00015D1FFF7C8F90346012B06D1FFF7D3F9CC
:108A000003461B0A03F00F0305E0FFF7D7F90346FF
:108A10001B0A03F00F03364A52F8233014E0FFF725
:108A2000B2F90346012B06D1FFF7BDF903461B0936
:108A300003F00F0305E0FFF7C1F903461B0903F03C
:108A40000F032B4A52F823303B61BB68002B15D132
:108A50003B697B6112E0BB68042B02D1254B7B6133
:108A60000CE0BB68082B09D1FFF7A0F80346012BE7
:108A700002D1204B7B6101E01F4B7B61FFF7D1F9F5
:108A800003460C2B2FD1FFF7A3FA78607B68022BEB
:108A900003D07B68032B03D00DE0164BFB600DE089
:108AA000FFF784F80346012B02D1124BFB6005E06F
:108AB000114BFB6002E03B69FB6000BFFFF766FA09
:108AC0000246FB6803FB02F4FFF777FA03461B0933
:108AD0000133B4FBF3F4FFF765FA03465B0F013390
:108AE000B4FBF3F37B617B6918461C37BD4690BD30
:108AF0004C5C02080024F4000048E80198B500AF7F
:108B0000FFF75CFF0446FFF7E6F903461B0903F095
:108B10000F03034A52F82330B4FBF3F3184698BD11
:108B2000EC5B020898B500AFFFF7E8FF0446FFF7DB
:108B3000EAF903461B0A034A52F8233024FA03F3E6
:108B4000184698BD2C5C020898B500AFFFF7D6FF19
:108B50000446FFF7E3F90346DB0A034A52F82330E1
:108B600024FA03F3184698BD2C5C020880B485B043
:108B700000AF786039607B68002B2DD03B68002BFC
:108B80002AD07B684F221A604FF0B0439B68FB608D
:108B9000FB6803F00C027B685A60FB6803F0F0028C
:108BA0007B689A60FB6803F4E0627B68DA60FB68CC
:108BB00003F460527B681A614FF0B043D3F8083178
:108BC000FB60FB681B01DAB27B685A61054B1B68CE
:108BD00003F007023B681A6000BF1437BD4680BC33
:108BE000704700BF0040005890B585B000AF786076
:108BF0007B681B0903F00F03104A52F82330FB6017
:108C0000FFF774F903461B0903F00F030C4A52F8EF
:108C10002330FA68B2FBF3F3BB60BB68094AA2FBDE
:108C200003239C0CFEF75EFF03461946204600F026
:108C30000BF8034618461437BD4690BD4C5C02083D
:108C4000EC5B020883DE1B4380B58EB000AF78601A
:108C500039603A4A07F1200392E8030018600433B0
:108C60001980374A07F1180392E8030018600433AB
:108C70001980344A07F10C0307CA83E80700002370
:108C80007B633B68B3F5007F1BD100233B6314E09B
:108C90003B6B5B0038333B4433F8183C1A467B6827
:108CA000934207D83B6B9B0038333B4453F82C3C32
:108CB0007B6321E03B6B01333B633B6B022BE7D9CA
:108CC0001AE00023FB6214E0FB6A5B0038333B448C
:108CD00033F8203C1A467B68934207D8FB6A9B0016
:108CE00038333B4453F82C3C7B6305E0FB6A01338B
:108CF000FB62FB6A022BE7D9134B1B6823F00702C8
:108D000011497B6B13430B60FDF7E8FAB86208E08A
:108D1000FDF7E4FA0246BB6AD31A022B01D90323FA
:108D200007E0094B1B6803F007037A6B9A42EFD107
:108D3000002318463837BD4680BD00BF883302087F
:108D400090330208983302080040005880B400AF06
:108D50004FF0B043D3F8903003F00203022B01D15F
:108D6000012300E000231846BD4680BC704780B454
:108D700083B000AF78604FF0B043D3F888207B68B1
:108D80001B0CDB431A407B689BB24FF0B04113438E
:108D9000C1F8883000BF0C37BD4680BC704780B436
:108DA00083B000AF78604FF0B043D3F8883023F43D
:108DB00040724FF0B0417B681343C1F8883000BF68
:108DC0000C37BD4680BC704780B483B000AF78607C
:108DD0004FF0B043D3F8883023F440624FF0B041F5
:108DE0007B681343C1F8883000BF0C37BD4680BC98
:108DF000704780B483B000AF78604FF0B043D3F8D1
:108E000088207B681B0903F47F23DB431A407B68BF
:108E10001B0103F47F234FF0B0411343C1F88830A6
:108E200000BF0C37BD4680BC704780B483B000AF34
:108E300078604FF0B043D3F888207B681B0C1B048C
:108E4000DB431A407B681B044FF0B0411343C1F869
:108E5000883000BF0C37BD4680BC704780B483B0FB
:108E600000AF78604FF0B043D3F8883023F0404231
:108E70004FF0B0417B681343C1F8883000BF0C3716
:108E8000BD4680BC704780B483B000AF78604FF0BF
:108E9000B043D3F8883023F040524FF0B0417B68A4
:108EA0001343C1F8883000BF0C37BD4680BC704703
:108EB00080B483B000AF78604FF0B043D3F8903007
:108EC00023F440724FF0B0417B681343C1F89030F7
:108ED00000BF0C37BD4680BC704780B400AF4FF078
:108EE000B043D3F8903003F440731846BD4680BCBD
:108EF000704780B400AF4FF0B043D3F890304FF0DC
:108F0000B04243F48033C2F8903000BFBD4680BC0D
:108F1000704780B400AF4FF0B043D3F890304FF0BB
:108F2000B04223F48033C2F8903000BFBD4680BC0D
:108F30007047000080B586B000AF786000237B6189
:108F40000023FB740023BB747B681B6803F480332D
:108F5000002B58D0FEF7B8FDFDF7C0F9F86009E026
:108F6000FDF7BCF90246FB68D31A022B02D9032392
:108F7000FB7406E07B4B1B6803F48073B3F5807FC2
:108F8000EED1FB7C002B3CD1FFF7A7FF02467B68AC
:108F90005B6B9A420FD04FF0B043D3F8903023F47C
:108FA00040737B61FFF7A5FFFFF7B3FF4FF0B042BF
:108FB0007B69C2F890307B6903F00203002B14D068
:108FC000FDF78CF9F8600BE0FDF788F90246FB68C5
:108FD000D31A41F28832934202D90323FB7404E08E
:108FE000FFF7B4FE0346012BEED1FB7C002B05D12D
:108FF0007B685B6B1846FFF75BFF04E0FB7CBB7490
:1090000001E0FB7CBB747B681B6803F00103002B51
:1090100004D07B685B681846FFF7A9FE7B681B6875
:1090200003F00203002B04D07B689B681846FFF70F
:109030009EFE7B681B6803F02003002B04D07B6836
:109040001B691846FFF7C0FE7B681B6803F40073BA
:10905000002B04D07B681B6A1846FFF7E6FE7B688E
:109060001B6803F48063002B04D07B685B6A18469E
:10907000FFF7DBFE7B681B6803F40063002B04D062
:109080007B689B6A1846FFF7D0FE7B681B6803F07D
:109090004003002B04D07B685B691846FFF7A9FEEC
:1090A0007B681B6803F08003002B04D07B689B69FE
:1090B0001846FFF79EFE7B681B6803F48073002B45
:1090C00004D07B68DB691846FFF793FE7B681B685A
:1090D00003F01003002B11D07B68DB681846FFF704
:1090E0005EFE7B68DB68B3F5807F07D14FF0B0434D
:1090F000DB684FF0B04243F08073D3607B681B683D
:1091000003F40043002B10D07B681B6B1846FFF75D
:10911000A5FE7B681B6B002B07D14FF0B043DB68CB
:109120004FF0B04243F08073D3607B681B6803F458
:109130008043002B11D07B68DB6A1846FFF7A3FE43
:109140007B68DB6AB3F1005F07D14FF0B043DB68A7
:109150004FF0B04243F48033D360BB7C18461837DD
:10916000BD4680BD0004005880B584B000AF786073
:109170000123FB737B68002B71D07B6893F82D3043
:10918000DBB2002B06D17B68002283F82C207868A4
:1091900003F02EFC7B68022283F82D20324BDB6823
:1091A00003F01003102B51D02F4BCA225A622E4BC2
:1091B00053225A62786800F0A9F80346FB73FB7BE0
:1091C000002B3FD1284B9B69274A23F08E6323F065
:1091D00040039361244B9A697B6859687B681B69DB
:1091E00019437B689B690B431F4913438B617B6861
:1091F000DA687B689B681B041B4913430B611A4B9D
:10920000DB6823F4F8527B68596A7B689B6A0B43DE
:1092100015491343CB60786800F0ACF80346FB7344
:10922000FB7B002B0ED1104B9B6923F060427B68C7
:10923000196A7B68DB6919437B685B690B430A49E0
:1092400013438B61084BFF225A6201E00023FB733A
:10925000FB7B002B03D17B68012283F82D20FB7B55
:1092600018461037BD4680BD0028004080B584B048
:1092700000AF7860114B5A6D7B681B6B1340FB602D
:10928000FB6803F00103002B05D00C4B0122DA65CB
:10929000786803F019FBFB6803F00203002B05D08C
:1092A000064B0222DA65786803F020FB7B68012216
:1092B00083F82D2000BF1037BD4680BD0028004038
:1092C00080B584B000AF78600F4BDB680E4A23F0A6
:1092D0002003D360FDF702F8F86009E0FCF7FEFF19
:1092E0000246FB68D31AB3F57A7F01D9032306E05F
:1092F000054BDB6803F02003002BEFD0002318465A
:109300001037BD4680BD00BF0028004080B584B046
:1093100000AF78600023FB73154BDB6803F040035C
:10932000002B20D1124BDB68114A43F08003D3603D
:10933000FCF7D4FFB8600DE0FCF7D0FF0246BB6835
:10934000D31AB3F57A7F05D90323FB737B68032215
:1093500083F82D20064BDB6803F04003002B02D17D
:10936000FB7B032BE8D1FB7B18461037BD4680BD45
:109370000028004080B584B000AF78600023FB7304
:109380001A4BDB68194A23F08003D360174B9B69A3
:1093900003F02003002B0CD17868FFF791FF034600
:1093A000002B1ED07B68032283F82D200323FB7340
:1093B00017E00E4B9B690D4A23F0200393617868F8
:1093C000FFF77EFF0346002B05D07B68032283F85E
:1093D0002D200323FB73054B9B69044A43F02003B4
:1093E0009361FB7B18461037BD4680BD00280040C6
:1093F00080B586B000AFF860B9607A603B60FB680A
:1094000093F82C30012B01D102236FE0FB6801227D
:1094100083F82C20FB68022283F82D20354BCA22CA
:109420005A62344B53225A62324B9B69314A23F4BD
:10943000806393612F4B0422DA652E4BDB6803F0C7
:109440004003002B1ED1FCF749FF786114E0FCF7C4
:1094500045FF02467B69D31AB3F57A7F0CD9254BB9
:10946000FF225A62FB68032283F82D20FB6800224A
:1094700083F82C20032339E01E4BDB6803F0040340
:10948000002BE4D03B681A041A49BB6813434B61B4
:10949000184B9B6923F0070216497B6813438B61C5
:1094A0003B68002B08D0144BD3F88430124A43F4A5
:1094B0008013C2F8843007E00F4BD3F880300E4A97
:1094C00043F48013C2F880300A4B9B69094A43F485
:1094D00088439361074BFF225A62FB68012283F89D
:1094E0002D20FB68002283F82C2000231846183713
:1094F000BD4680BD002800400008005880B582B0FD
:1095000000AF7860094B5B6D03F00403002B05D0BE
:10951000064B0422DA65786803F0AAF97B68012219
:1095200083F82D2000BF0837BD4680BD00280040CD
:1095300080B584B000AF78607B68002B01D1012337
:10954000C6E07B685B6A002B08D17B685B68B3F57B
:10955000827F09D07B680022DA6105E07B68002207
:109560001A617B6800225A617B6893F85D30DBB238
:10957000002B06D17B68002283F85C20786803F01A
:10958000DFFB7B68022283F85D207B681B681A681A
:109590007B681B6822F040021A607B68DB68B3F5C9
:1095A000E06F02D90023FB6002E04FF48053FB60C0
:1095B0007B68DB68B3F5706F07D07B68DB68B3F559
:1095C000E06F02D07B6800229A627B685B6803F4DC
:1095D00082727B689B6803F404431A437B681B69AF
:1095E00003F002031A437B685B6903F001031A432B
:1095F0007B689B6903F400731A437B68DB6903F0A3
:1096000038031A437B681B6A03F0800342EA0301B4
:109610007B689B6A03F400527B681B680A431A60EC
:109620007B689B6AB3F5005F1BD17B681B6B002BCB
:109630000BD17B68DB68B3F5E06F03D97B6802224E
:109640001A6302E07B6801221A637B681B6B022BA2
:1096500007D17B681B681A687B681B6842F400624C
:109660001A607B689B691B0C03F004027B685B6AD1
:1096700003F010031A437B685B6B03F008031A4383
:109680007B68DB6803F4706342EA0301FB6803F460
:1096900080527B681B680A435A607B689B6AB3F5FB
:1096A000005F05D17B68DA6A7B681B6892B21A6139
:1096B0007B681B68DA697B681B6822F40062DA61E8
:1096C0007B6800221A667B68012283F85D200023F4
:1096D00018461037BD4680BD80B588B000AFF86031
:1096E000B9603B601346FB800023FB77FB6893F86F
:1096F0005C30012B01D1022381E1FB68012283F858
:109700005C20FCF7EBFDB861FB88FB82FB6893F8FB
:109710005D30DBB2012B02D00223FB776AE1BB682C
:10972000002B02D0FB88002B02D10123FB7761E1E3
:10973000FB68032283F85D20FB6800221A66FB6841
:10974000BA689A63FB68FA889A87FB68FA88DA87AE
:10975000FB6800221A64FB680022A3F84420FB681F
:109760000022A3F84620FB6800221A65FB6800224D
:10977000DA64FB689B68B3F5004F0FD1FB681B6888
:109780001A68FB681B6822F040021A60FB681B68BD
:109790001A68FB681B6842F480421A60FB689B6A87
:1097A000B3F5005F0FD1FB681B681A68FB681B6884
:1097B00022F400521A60FB681B681A68FB681B6879
:1097C00042F400521A60FB681B681B6803F04003F8
:1097D000402B07D0FB681B681A68FB681B6842F0C7
:1097E00040021A60FB68DB68B3F5E06F4FD9FB6895
:1097F0005B68002B02D0FB8A012B42D1FB689B6B7C
:109800001A88FB681B68DA60FB689B6B9A1CFB6814
:109810009A63FB68DB8F9BB2013B9AB2FB68DA87E5
:109820002FE0FB681B689B6803F00203022B12D138
:10983000FB689B6B1A88FB681B68DA60FB689B6B94
:109840009A1CFB689A63FB68DB8F9BB2013B9AB260
:10985000FB68DA8715E0FCF741FD0246BB69D31AC5
:109860003A689A4203D83B68B3F1FF3F02D13B68A4
:10987000002B06D10323FB77FB68012283F85D20D0
:10988000B8E0FB68DB8F9BB2002BCAD180E0FB689D
:109890005B68002B02D0FB8A012B74D1FB68DB8F45
:1098A0009BB2012B12D9FB689B6B1A88FB681B6863
:1098B000DA60FB689B6B9A1CFB689A63FB68DB8F22
:1098C0009BB2023B9AB2FB68DA875CE0FB689A6B5A
:1098D000FB681B680C3312781A70FB689B6B5A1C70
:1098E000FB689A63FB68DB8F9BB2013B9AB2FB6813
:1098F000DA8748E0FB681B689B6803F00203022BD1
:109900002BD1FB68DB8F9BB2012B12D9FB689B6BC1
:109910001A88FB681B68DA60FB689B6B9A1CFB6803
:109920009A63FB68DB8F9BB2023B9AB2FB68DA87D3
:1099300029E0FB689A6BFB681B680C3312781A707D
:10994000FB689B6B5A1CFB689A63FB68DB8F9BB2BE
:10995000013B9AB2FB68DA8715E0FCF7BFFC0246D0
:10996000BB69D31A3A689A4203D83B68B3F1FF3F08
:1099700002D13B68002B06D10323FB77FB68012251
:1099800083F85D2036E0FB68DB8F9BB2002BB1D102
:10999000FB689B6AB3F5005F07D1FB681B681A6818
:1099A000FB681B6842F480521A60BA693968F8682B
:1099B00000F0CEFE0346002B02D0FB6820221A6680
:1099C000FB689B68002B0AD100233B61FB681B6886
:1099D000DB683B61FB681B689B683B613B69FB681C
:1099E0001B6E002B02D00123FB7703E0FB680122F2
:1099F00083F85D20FB68002283F85C20FB7F18461B
:109A00002037BD4680BD80B58CB002AFF860B9602C
:109A10003B601346FB800023BB610023FB750023E2
:109A200087F82730FB6893F85D30DBB2012B03D059
:109A3000022387F82730CCE1FB685B68B3F5827FAF
:109A400012D1FB689B68002B0ED1FB68042283F8BF
:109A50005D20FA883B6800931346BA68B968F868D5
:109A600000F0C1F90346BAE1FB6893F85C30012BC2
:109A700001D10223B3E1FB68012283F85C20FCF7EB
:109A80002DFC3862BB68002B02D0FB88002B03D171
:109A9000012387F827309CE1FB68042283F85D20CE
:109AA000FB6800221A66FB68BA681A64FB68FA88C9
:109AB000A3F84420FB68FA88A3F84620FB6800223C
:109AC0009A63FB6800229A87FB680022DA87FB68AA
:109AD0000022DA64FB6800221A65FB689B6AB3F512
:109AE000005F18D1FB681B681A68FB681B6822F4CA
:109AF00000521A60FB681B681A68FB681B6842F416
:109B000000521A60FB68B3F846309BB2013B9AB230
:109B1000FB68A3F84620FB68DB68B3F5E06F08D963
:109B2000FB681B685A68FB681B6822F480525A6005
:109B300007E0FB681B685A68FB681B6842F48052A8
:109B40005A60FB689B68B3F5004F0FD1FB681B6838
:109B50001A68FB681B6822F040021A60FB681B68E9
:109B60001A68FB681B6822F480421A60FB681B6855
:109B70001B6803F04003402B07D0FB681B681A6882
:109B8000FB681B6842F040021A60FB68DB68B3F5B3
:109B9000E06F71D835E0FB681B689B6803F0010338
:109BA000012B17D1FB681B6803F10C02FB681B6CCF
:109BB0001278D2B21A70FB681B6C5A1CFB681A64CC
:109BC000FB68B3F846309BB2013B9AB2FB68A3F83E
:109BD000462016E0FCF782FB02463B6AD31A3A683D
:109BE0009A4203D83B68B3F1FF3F02D13B68002B98
:109BF00007D1032387F82730FB68012283F85D2013
:109C0000E7E0FB68B3F846309BB2002BC3D139E0E4
:109C1000FB681B689B6803F00103012B15D1FB68EF
:109C20001B68DA68FB681B6C92B21A80FB681B6CBD
:109C30009A1CFB681A64FB68B3F846309BB2013B80
:109C40009AB2FB68A3F8462016E0FCF747FB0246F1
:109C50003B6AD31A3A689A4203D83B68B3F1FF3F94
:109C600002D13B68002B07D1032387F82730FB681C
:109C7000012283F85D20ACE0FB68B3F846309BB26C
:109C8000002BC5D1FB689B6AB3F5005F78D1FB68F8
:109C90001B681A68FB681B6842F480521A603B6AB2
:109CA00000933B6801220121F86800F0DBFB0346CA
:109CB000002B03D0032387F827308AE0FB68DB689A
:109CC000B3F5E06F07D9FB681B68DA68FB681B6CAB
:109CD00092B21A8008E0FB681B6803F10C02FB6873
:109CE0001B6C1278D2B21A703B6A00933B68012257
:109CF0000121F86800F0B6FB0346002B09D0FB6891
:109D00001B6E43F00202FB681A66032387F82730B4
:109D10005FE0FB68DB68B3F5706F05D1FB681B681B
:109D2000DB68BB61BB692BE0FB681B680C33FB6124
:109D3000FB691B78DBB2FB75FB7DFB68DB68B3F569
:109D4000E06F1DD1FB681B6B022B19D13B6A00939E
:109D50003B6801220121F86800F084FB0346002BD8
:109D600009D0FB681B6E43F00202FB681A660323EE
:109D700087F827302DE0FB691B78DBB2FB75FB7D94
:109D80003A6A3968F86800F08BFC0346002B02D071
:109D9000FB6820221A66FB681B689B6803F01003AF
:109DA000102B0AD1FB681B6E43F00202FB681A6697
:109DB000FB681B684FF6EF729A60FB681B6E002B06
:109DC00003D0012387F8273003E0FB68012283F8E2
:109DD0005D20FB68002283F85C2097F82730184646
:109DE0002837BD4680BD80B592B002AFF860B9603B
:109DF0007A607B800023BB610023FB750123FB633A
:109E0000002387F83B30FB6893F85C30012B01D1CD
:109E1000022322E3FB68012283F85C20FCF75EFA50
:109E20007863FB6893F85D3087F83330FB685B68D4
:109E3000FB627B887B857B883B85FB681B681B6896
:109E40007B62FB681B685B683B6297F83330012BD1
:109E50000FD0FB6AB3F5827F07D1FB689B68002BAC
:109E600003D197F83330042B03D0022387F83B301B
:109E7000EDE2BB68002B05D07B68002B02D07B880D
:109E8000002B03D1012387F83B30E0E2FB6893F815
:109E90005D30DBB2042B03D0FB68052283F85D2024
:109EA000FB6800221A66FB687A681A64FB687A8885
:109EB000A3F84620FB687A88A3F84420FB68BA68B8
:109EC0009A63FB687A88DA87FB687A889A87FB68E6
:109ED0000022DA64FB6800221A65FB689B6AB3F50E
:109EE000005F0FD1FB681B681A68FB681B6822F4CF
:109EF00000521A60FB681B681A68FB681B6842F412
:109F000000521A60FB68DB68B3F5E06F02D83B8D46
:109F1000012B08D9FB681B685A68FB681B6822F490
:109F200080525A6007E0FB681B685A68FB681B6830
:109F300042F480525A60FB681B681B6803F04003C0
:109F4000402B07D0FB681B681A68FB681B6842F04F
:109F500040021A60FB68DB68B3F5E06F40F2CE8028
:109F6000FB685B68002B03D07B8D012B40F0B88031
:109F7000FB689B6B1A88FB681B68DA60FB689B6B4D
:109F80009A1CFB689A63FB68DB8F9BB2013B9AB219
:109F9000FB68DA87FB68DB8F9BB2002B40F0A08068
:109FA000FB689B6AB3F5005F40F09A807B6A03F020
:109FB0000403002B0CD13B6A03F00803002B07D0ED
:109FC000FB681B681A68FB681B6842F400721A6021
:109FD000FB681B681A68FB681B6842F480521A60B1
:109FE0007EE0FB681B689B6803F00203022B3FD1F5
:109FF000FB68DB8F9BB2002B3AD0FB6B012B37D178
:10A00000FB689B6B1A88FB681B68DA60FB689B6BBC
:10A010009A1CFB689A63FB68DB8F9BB2013B9AB288
:10A02000FB68DA870023FB63FB68DB8F9BB2002BA6
:10A030001ED1FB689B6AB3F5005F19D17B6A03F000
:10A040000403002B0CD13B6A03F00803002B07D05C
:10A05000FB681B681A68FB681B6842F400721A6090
:10A06000FB681B681A68FB681B6842F480521A6020
:10A07000FB681B689B6803F00103012B1CD1FB6884
:10A08000B3F846309BB2002B16D0FB681B68DA6829
:10A09000FB681B6C92B21A80FB681B6C9A1CFB68F5
:10A0A0001A64FB68B3F846309BB2013B9AB2FB6876
:10A0B000A3F846200123FB63FCF710F902467B6BF3
:10A0C000D31ABA6C9A420BD8BB6CB3F1FF3F07D0DE
:10A0D000032387F83B30FB68012283F85D20B6E15B
:10A0E000FB68DB8F9BB2002B7FF47BAFFB68B3F880
:10A0F00046309BB2002B7FF474AF2DE1FB685B68A8
:10A10000002B03D07B8D012B40F01981FB68DB8F86
:10A110009BB2012B12D9FB689B6B1A88FB681B68EA
:10A12000DA60FB689B6B9A1CFB689A63FB68DB8FA9
:10A130009BB2023B9AB2FB68DA8700E1FB689A6B3C
:10A14000FB681B680C3312781A70FB689B6B5A1CF7
:10A15000FB689A63FB68DB8F9BB2013B9AB2FB689A
:10A16000DA87FB68DB8F9BB2002B40F0E880FB684E
:10A170009B6AB3F5005F40F0E2807B6A03F0040362
:10A18000002B0CD13B6A03F00803002B07D0FB68BF
:10A190001B681A68FB681B6842F400721A60FB684F
:10A1A0001B681A68FB681B6842F480521A60C6E09C
:10A1B000FB681B689B6803F00203022B58D1FB6805
:10A1C000DB8F9BB2002B53D0FB6B012B50D1FB6874
:10A1D000DB8F9BB2012B12D9FB689B6B1A88FB6843
:10A1E0001B68DA60FB689B6B9A1CFB689A63FB68D0
:10A1F000DB8F9BB2023B9AB2FB68DA8712E0FB6806
:10A200009A6BFB681B680C3312781A70FB689B6BA7
:10A210005A1CFB689A63FB68DB8F9BB2013B9AB2C6
:10A22000FB68DA870023FB63FB68DB8F9BB2002BA4
:10A230001ED1FB689B6AB3F5005F19D17B6A03F0FE
:10A240000403002B0CD13B6A03F00803002B07D05A
:10A25000FB681B681A68FB681B6842F400721A608E
:10A26000FB681B681A68FB681B6842F480521A601E
:10A27000FB681B689B6803F00103012B48D1FB6856
:10A28000B3F846309BB2002B42D0FB68B3F846309F
:10A290009BB2012B23D9FB681B68DA68FB681B6C37
:10A2A00092B21A80FB681B6C9A1CFB681A64FB68EC
:10A2B000B3F846309BB2023B9AB2FB68A3F8462043
:10A2C000FB68B3F846309BB2012B1FD8FB681B68B4
:10A2D0005A68FB681B6842F480525A6016E0FB68BB
:10A2E0001B6803F10C02FB681B6C1278D2B21A7067
:10A2F000FB681B6C5A1CFB681A64FB68B3F8463099
:10A300009BB2013B9AB2FB68A3F846200123FB6392
:10A31000FBF7E4FF02467B6BD31ABA6C9A4203D870
:10A32000BB6CB3F1FF3F02D1BB6C002B07D1032301
:10A3300087F83B30FB68012283F85D2087E0FB68EB
:10A34000DB8F9BB2002B7FF433AFFB68B3F8463052
:10A350009BB2002B7FF42CAFFB689B6AB3F5005FC8
:10A3600046D17B6B0093BB6C01220121F86800F0A1
:10A3700079F80346002B09D0FB681B6E43F00202FC
:10A38000FB681A66032387F83B3060E0FB68DB68F4
:10A39000B3F5706F05D1FB681B68DB68BB61BB69F7
:10A3A00026E0FB681B680C33FB61FB691B78DBB2A2
:10A3B000FB75FB7DFB681B6B022B19D17B6B00933C
:10A3C000BB6C01220121F86800F04CF80346002B19
:10A3D00009D0FB681B6E43F00202FB681A66032378
:10A3E00087F83B3033E0FB691B78DBB2FB75FB7D04
:10A3F000FB681B689B6803F01003102B0DD1FB68F2
:10A400001B6E43F00202FB681A66FB681B684FF67E
:10A41000EF729A60012387F83B307A6BB96CF86869
:10A4200000F096F90346002B05D0012387F83B3056
:10A43000FB6820221A66FB681B6E002B03D00123E9
:10A4400087F83B3003E0FB68012283F85D20FB685E
:10A45000002283F85C2097F83B3018464037BD4611
:10A4600080BD000080B588B000AFF860B9603B6087
:10A470001346FB71FBF732FF0246BB6A9B1A3A6830
:10A480001344FB61FBF72AFFB861394B1B685B0182
:10A490001B0DFA6902FB03F37B6154E03B68B3F1E7
:10A4A000FF3F50D0FBF71AFF0246BB69D31AFA6987
:10A4B0009A4202D9FB69002B3DD1FB681B685A68A0
:10A4C000FB681B6822F0E0025A60FB685B68B3F52A
:10A4D000827F11D1FB689B68B3F5004F04D0FB6805
:10A4E0009B68B3F5806F07D1FB681B681A68FB682F
:10A4F0001B6822F040021A60FB689B6AB3F5005F9C
:10A500000FD1FB681B681A68FB681B6822F40052B5
:10A510001A60FB681B681A68FB681B6842F40052EB
:10A520001A60FB68012283F85D20FB68002283F833
:10A530005C20032317E07B69002B01D10023FB6122
:10A540007B69013B7B61FB681B689A68BB681340B1
:10A55000BA689A420CBF01230023DBB21A46FB798A
:10A560009A429BD1002318462037BD4680BD00BFCC
:10A570000400002080B58AB000AFF860B9607A604E
:10A580003B600023FB75FBF7A9FE02463B6B9B1A61
:10A590003A6813447B62FBF7A1FE3862FB681B68D4
:10A5A0000C33FB613D4B1A6813469B001344DA00E1
:10A5B000D31A1B0D7A6A02FB03F3BB6160E0BB6830
:10A5C000B3F5C06F07D17B68002B04D1FB691B7802
:10A5D000DBB2FB75FB7D3B68B3F1FF3F50D0FBF76F
:10A5E0007DFE02463B6AD31A7A6A9A4202D97B6A96
:10A5F000002B3DD1FB681B685A68FB681B6822F082
:10A60000E0025A60FB685B68B3F5827F11D1FB689A
:10A610009B68B3F5004F04D0FB689B68B3F5806F6F
:10A6200007D1FB681B681A68FB681B6822F04002B0
:10A630001A60FB689B6AB3F5005F0FD1FB681B686B
:10A640001A68FB681B6822F400521A60FB681B68DA
:10A650001A68FB681B6842F400521A60FB6801220A
:10A6600083F85D20FB68002283F85C20032310E060
:10A67000BB69002B01D100237B62BB69013BBB613D
:10A68000FB681B689A68BB6813407A689A4296D147
:10A69000002318462837BD4680BD00BF04000020B7
:10A6A00080B586B002AFF860B9607A60FB685B681D
:10A6B000B3F5827F11D1FB689B68B3F5004F04D0DE
:10A6C000FB689B68B3F5806F07D1FB681B681A684D
:10A6D000FB681B6822F040021A607B680093BB682D
:10A6E00000228021F868FFF7BDFE0346002B07D04B
:10A6F000FB681B6E43F02002FB681A66032323E00D
:10A70000FB685B68B3F5827F1DD1FB689B68B3F57E
:10A71000004F04D0FB689B68B3F5806F13D17B6852
:10A720000093BB6800224FF4C061F868FFF722FF76
:10A730000346002B07D0FB681B6E43F02002FB682A
:10A740001A66032300E0002318461037BD4680BD7B
:10A7500080B586B002AFF860B9607A607B6800931C
:10A76000BB6800224FF4C051F868FFF703FF0346AF
:10A77000002B07D0FB681B6E43F02002FB681A66B3
:10A78000032327E07B680093BB6800228021F868E0
:10A79000FFF768FE0346002B07D0FB681B6E43F0F3
:10A7A0002002FB681A66032314E07B680093BB68F1
:10A7B00000224FF4C061F868FFF7DCFE0346002B6F
:10A7C00007D0FB681B6E43F02002FB681A66032368
:10A7D00000E0002318461037BD4680BD80B483B02A
:10A7E00000AF7860064B9B6823F4006204497B68E5
:10A7F00013438B6000BF0C37BD4680BC704700BF61
:10A800000004005880B400AF054BD3F89030044AE0
:10A8100043F40043C2F8903000BFBD4680BC70478F
:10A820000004005880B400AF054BD3F89030044AC0
:10A8300023F40043C2F8903000BFBD4680BC70478F
:10A840000004005880B400AF034B4FF400629A61DB
:10A8500000BFBD4680BC70470004005880B400AF04
:10A86000064B5B6903F00203022B01D1012300E0D8
:10A8700000231846BD4680BC704700BF0004005846
:10A8800080B400AF064B5B6903F00403042B01D1D5
:10A89000012300E000231846BD4680BC704700BF7E
:10A8A0000004005880B400AF4FF0B043D3F89430A8
:10A8B0004FF0B04223F40043C2F8943000BFBD46CD
:10A8C00080BC704780B400AF4FF0B043D3F89430F1
:10A8D00003F48043B3F5804F01D1012300E000234E
:10A8E0001846BD4680BC704780B483B000AF786026
:10A8F000064BD3F8902005497B681343C1F890308C
:10A9000000BF0C37BD4680BC704700BF0008005830
:10A9100080B584B000AF78607B68002B03D1012341
:10A92000FB73FB7B52E00023FB737B689B79BB735B
:10A93000BB7B002B02D0BB7B032B09D17B680022A1
:10A940005A71786802F0A4FA4FF48050FFF7CCFFF8
:10A95000BB7B002B26D17B6802229A71FFF7A2FFF6
:10A960001C4B1A681346DB009B1A9B00DB0C64220D
:10A9700002FB03F3BB60BB68002B05D10123FB7313
:10A980007B6801229A6007E0BB68013BBB60FFF770
:10A9900099FF0346002BEED1FFF734FF4FF4006020
:10A9A000FFF71CFFFFF74EFFFB7B002B0AD17B68F4
:10A9B0001B68184600F0B0FA7B6801221A717B68A8
:10A9C00000229A607B6801229A71FB7B184610373F
:10A9D000BD4680BD0400002080B586B000AFF860A1
:10A9E0007A601A460B467B8113463B81FB689B7954
:10A9F000DBB2012B4AD1FB685B79012B01D1022329
:10AA000045E0FB6801225A71FB6802229A71F868DE
:10AA100000F050FBFFF706FF0D21F86800F09CFAEC
:10AA20007B891B0A9BB2DBB21946F86800F094FAE6
:10AA30007B89DBB21946F86800F08EFA0023BB82EE
:10AA40000AE0BB8A7A6813441B781946F86800F05C
:10AA500083FABB8A0133BB82BA8A3B899A42F0D31C
:10AA6000FFF7D0FEF86800F049FBFB689B68002BFD
:10AA700002D00123FB7501E00023FB75FB68012276
:10AA80009A71FB6800225A71FB7D00E00223184690
:10AA90001837BD4680BD80B588B000AFF8607A60D9
:10AAA0001A460B467B8113463B817B68BB61FB6882
:10AAB0009B79DBB2012B4AD1FB685B79012B01D179
:10AAC000022345E0FB6801225A71F86800F0F2FAAF
:10AAD000FFF7A8FE1D21F86800F03EFA7B891B0AEB
:10AAE0009BB2DBB21946F86800F036FA7B89DBB21C
:10AAF0001946F86800F030FA0021F86800F02CFAE6
:10AB00000023FB8209E0B969F86800F07BFABB69B1
:10AB10000133BB61FB8A0133FB82FA8A3B899A428B
:10AB2000F1D3FFF76FFEF86800F0E8FAFB689B6866
:10AB3000002B02D00123FB7701E00023FB77FB68A9
:10AB400001229A71FB6800225A71FB7F00E0022308
:10AB500018462037BD4680BD80B586B000AFF8608E
:10AB60007A601A460B46FB7213463B81FB689B7961
:10AB7000DBB2012B4AD1FB685B79012B01D10223A7
:10AB800045E0FB6801225A71F86800F093FAFB7AFD
:10AB9000842B02D0FB7A942B03D1FB6801221A711B
