:020000040800F2
:1000000000000120AD420008E1020008E9020008FA
:10001000F1020008F90200080103000800000000D6
:1000200000000000000000000000000009030008BC
:100030001503000800000000210300082D0300083C
:10004000FD420008FD420008FD420008FD42000894
:10005000FD420008FD420008FD420008FD42000884
:10006000FD420008FD420008FD420008FD42000874
:10007000FD420008FD420008FD420008FD42000864
:10008000FD420008FD420008FD420008FD42000854
:1000900000000000FD420008FD420008FD4200088B
:1000A000FD420008FD420008FD420008FD42000834
:1000B000FD420008FD420008FD420008FD42000824
:1000C000FD420008FD420008FD420008FD42000814
:1000D000FD420008FD420008FD420008FD42000804
:1000E000FD420008FD420008FD420008FD420008F4
:1000F000FD4200080000000000000000FD42000872
:10010000FD420008FD420008FD420008FD420008D3
:10011000FD420008FD420008FD420008FD420008C3
:10012000FD420008FD420008FD420008FD420008B3
:08013000FD420008FD42000839
:1001380010B5054C237833B9044B13B10448AFF319
:1001480000800123237010BD0C0000200000000077
:100158005843000808B5034B1BB103490348AFF3E4
:10016800008008BD0000000010000020584300086F
:1001780080B400AF4FF0B043D3F890304FF0B042A6
:1001880043F40043C2F8903000BFBD4680BC7047BE
:1001980080B485B000AF78604FF0B043DA6C4FF0B0
:1001A800B0417B681343CB644FF0B043DA6C7B6893
:1001B8001340FB60FB6800BF1437BD4680BC704726
:1001C80080B485B000AF78604FF0B0439A6D4FF0BF
:1001D800B0417B6813438B654FF0B0439A6D7B68E1
:1001E8001340FB60FB6800BF1437BD4680BC7047F6
:1001F80080B500AF00220F216FF0010001F0BBF8BD
:1002080000BF80BD80B590B000AF786007F10803EB
:1002180038220021184604F06EF87B681B680F4AE4
:10022800934216D14FF48033BB604FF48073FB6365
:1002380007F10803184602F0F3FE0346002B01D02D
:1002480000F000FCFFF794FF4FF48060FFF7B8FF61
:1002580000E000BF4037BD4680BD00BF0028004019
:1002680080B588B000AF786007F10C0300221A60EF
:100278005A609A60DA601A617B681B68154A934273
:1002880024D14FF48040FFF79BFF0120FFF780FF48
:100298002023FB6002233B6100237B610023BB61B9
:1002A8000323FB6107F10C0319464FF0904001F05E
:1002B800A3FA4FF4A063FB600523FB6107F10C036D
:1002C80019464FF0904001F097FA00E000BF203740
:1002D800BD4680BD0038004080B400AF00BFFDE7D8
:1002E80080B400AF00BFFDE780B400AF00BFFDE7FA
:1002F80080B400AF00BFFDE780B400AF00BFFDE7EA
:1003080080B400AF00BFBD4680BC704780B400AF6A
:1003180000BFBD4680BC704780B400AF00BFBD467B
:1003280080BC704780B500AF00F02AFF00BF80BDD9
:1003380080B400AF00BFBD4680BC704780B500AF39
:10034800124B134A1A60114B00225A600F4B7F223E
:100358009A600E4BFF22DA600C4B00221A610B4B9D
:1003680000225A61094B00229A61084B4FF08042E3
:10037800DA61064802F06EFF0346002B01D000F058
:1003880061FB01F00FFC00BF80BD00BF280000200A
:100398000028004080B596B002AF78600B467B809D
:1003A80007F108034022FF21184603F0A4FF0023A9
:1003B800A7F84E302DE07A88B7F84E30D31A402B84
:1003C80005D87A88B7F84E30D31A9BB200E040239C
:1003D800A7F84C30B7F84E307A681A44B7F84C3062
:1003E80007F108014FF47A7000900F4803F0B7FA4C
:1003F800034687F84B3097F84B30002B02D097F81C
:100408004B300CE0B7F84E20B7F84C301344A7F83F
:100418004E30B7F84E207B889A42CCD3002318463A
:100428005037BD4680BD00BF6000002080B586B053
:1004380000AF284B284A1A60264B4FF482725A6044
:10044800244B00229A60234B4FF4E062DA60214B80
:1004580000221A611F4B00225A611E4B4FF4007292
:100468009A611C4B2822DA611A4B00221A62194B36
:1004780000225A62174B00229A62164B0722DA6250
:10048800144B00221A63134B08225A633B1D0022A7
:100498001A605A609A60DA601A614FF400437B6010
:1004A8000123BB600023FB6000233B613B1D194611
:1004B8004FF0904001F0A0F901224FF400414FF0B5
:1004C800904001F0F9FA034802F0DEFF00BF183748
:1004D800BD4680BD600000200038004080B500AFF8
:1004E8000A4B0B4A1A60094B04225A60074B40F624
:1004F800FF72DA60054B40F6FF729A60034801F01C
:10050800F2FA024801F03EFB00BF80BDC4000020A3
:100518000030004080B500AF024801F033FB00BF57
:1005280080BD00BFC400002080B582B000AF00F0DD
:1005380039FE78600CE000F035FE02467B68D31A7D
:1005480040F6B732934201D9002307E0FFF7E2FFF4
:1005580000F0A2F80346002BEDD101231846083716
:10056800BD4680BD80B582B000AF0623FB71002276
:100578004FF400414FF0904001F09EFAF91D4FF4FE
:100588007A730122064803F053F801224FF4004120
:100598004FF0904001F090FA00BF0837BD4680BD8B
:1005A8006000002080B582B000AF0423FB710022F8
:1005B8004FF400414FF0904001F07EFAF91D4FF4DE
:1005C8007A730122064803F033F801224FF4004100
:1005D8004FF0904001F070FA00BF0837BD4680BD6B
:1005E8006000002080B582B000AFAB23FB71002211
:1005F8004FF400414FF0904001F05EFAF91D4FF4BE
:100608007A730122214803F013F801224FF40041C4
:100618004FF0904001F050FA012000F0CDFD1C4B46
:100628001B88BB800023BB719F23FB7100224FF402
:1006380000414FF0904001F03FFAF91D4FF47A73F2
:100648000122124802F0F4FF3B1D03211846FFF770
:10065800A1FE01224FF400414FF0904001F02CFA26
:100668003B791F2B0CBF01230023DAB2094B1A7008
:10067800084B1B7883F00103DBB2002B02D1FFF794
:1006880091FF00E000BF0837BD4680BD6000002034
:1006980070430008D400002080B500AF00F00AF8CD
:1006A800034603F00103002B14BF01230023DBB230
:1006B800184680BD80B582B000AF0523FB710123C9
:1006C800BB7100224FF400414FF0904001F0F4F963
:1006D800F91D4FF47A7301220C4802F0A9FFBB1DE3
:1006E80001211846FFF756FE0346002B01D00123CF
:1006F800BB7101224FF400414FF0904001F0DCF94A
:10070800BB7918460837BD4680BD00BF6000002091
:1007180080B586B000AFF860B9601346FB80274B00
:100728001B7883F00103DBB2002B01D0002340E0EB
:1007380003233B74FB681B0CDBB27B74FB681B0A4E
:10074800DBB2BB74FB68DBB2FB74FFF7EDFE03465C
:1007580083F00103DBB2002B01D0002329E0002243
:100768004FF400414FF0904001F0A6F907F1100155
:100778004FF47A730422124802F05AFF0346002B02
:1007880009D1FB881946B868FFF704FE0346002B19
:1007980001D1012300E00023FB75FB7D03F0010379
:1007A800FB7501224FF400414FF0904001F084F9AD
:1007B800FB7D18461837BD4680BD00BFD400002019
:1007C8006000002080B586B000AFF860B9601346BD
:1007D800FB802D4B1B7883F00103DBB2002B01D08B
:1007E80000234CE002233B74FB681B0CDBB27B74D8
:1007F800FB681B0ADBB2BB74FB68DBB2FB74FFF758
:1008080093FE034683F00103DBB2002B01D00023E3
:1008180035E0FFF7A7FE00224FF400414FF090406B
:1008280001F04AF907F110014FF47A7304221748CE
:1008380002F0FEFE0346002B0BD1FA884FF47A73C0
:10084800B968124802F0F4FE0346002B01D10123D7
:1008580000E00023FB75FB7D03F00103FB7501221B
:100868004FF400414FF0904001F026F9FB7D83F0F2
:100878000103DBB2002B01D0FFF794FEFB7D184685
:100888001837BD4680BD00BFD4000020600000209E
:1008980080B483B000AF78604FF0B043D3F89030A5
:1008A80023F018024FF0B0417B681343C1F8903031
:1008B80000BF0C37BD4680BC704780B485B000AF20
:1008C80078604FF0B043DA6C4FF0B0417B68134367
:1008D800CB644FF0B043DA6C7B681340FB60FB6875
:1008E80000BF1437BD4680BC7047000080B59AB081
:1008F80000AF07F1200348220021184603F0FBFC53
:1009080007F1080300221A605A609A60DA601A61D7
:100918005A6101F047F90020FFF7BAFF264B1B6820
:1009280023F4C063244A43F400731360224B1B680A
:1009380003F4C0637B607B6806233B628123FB6210
:100948004FF480733B6340237B630223FB640223E1
:100958003B6500237B650C23BB654FF40033FB65C7
:100968004FF0C0437B664FF000733B6607F12003EE
:10097800184601F055FC0346002B01D000F062F840
:100988004F23BB600323FB6000233B6100237B6193
:100998000023BB610023FB6107F10803022118460D
:1009A80001F0C0FF0346002B01D000F04BF800BF58
:1009B8006837BD4680BD00BF0004005880B586B0CA
:1009C80000AF3B1D00221A605A609A60DA601A6113
:1009D8000220FFF772FF0123BB600023FB600023A6
:1009E8003B614FF490737B603B1D1946064800F04D
:1009F80003FF00224FF49071034801F05DF800BF37
:100A08001837BD4680BD00BF0004004880B582B0DD
:100A180000AF03463960FB80FB880122194608486D
:100A280001F04AF8386800F0C7FBFB880022194635
:100A3800034801F041F800BF0837BD4680BD00BF3C
:100A48000004004880B400AF72B600BF00BFFDE7E5
:100A580080B483B000AF78607B681B781A467B68E7
:100A680001331B781B021A437B6802331B781B0473
:100A78001A437B6803331B781B06134318460C374D
:100A8800BD4680BC7047000080B588B000AF786074
:100A980007F10C0314220021184603F02CFC07F17F
:100AA8000C03142219464FF46C30FFF731FE03464D
:100AB80083F00103DBB2002B01D0002345E007F1EE
:100AC8000C031846FFF7C4FF0346224A934201D09D
:100AD80000233AE007F10C0304331846FFF7B8FF88
:100AE80002467B681A6007F10C0308331846FFF7C3
:100AF800AFFF02467B685A6007F10C030C331846B7
:100B0800FFF7A6FF02467B689A603A7F7B681A73F4
:100B18007B7FA52B0CBF01230023DAB27B685A73B5
:100B2800BB7FA52B0CBF01230023DAB27B689A7325
:100B38007B689B68002B04D07B689B68B3F56C3F8F
:100B480001D9002301E07B685B7B18462037BD464E
:100B580080BD00BF544F524680B596B000AF786054
:100B6800002387F8573000233B657B68FB6441E02E
:100B7800FB6C402B02D8FB6C9BB200E04023A7F82B
:100B88004830B7F8482007F108031946386DFFF7D1
:100B9800BFFD034683F00103DBB2002B04D097F8B6
:100BA8005730DB43DBB22AE00023A7F84A300FE0D6
:100BB800B7F84A3058333B4413F8502C97F857305D
:100BC800534087F85730B7F84A300133A7F84A300E
:100BD800B7F84A20B7F848309A42E9D3B7F848300E
:100BE8003A6D13443B65B7F84830FA6CD31AFB6486
:100BF800FFF790FCFB6C002BBAD197F857301846DA
:100C08005837BD4680BD000080B582B000AFA5232F
:100C1800FB71FB1D012219460348FFF7D3FD03466C
:100C280018460837BD4680BD12B00300B0B58EB077
:100C380000AF7860484B7B6300233B637B689B680D
:100C4800FB6200F003FC0346002B01D000237EE08A
:100C5800012387F82B306FE0FB6AB3F5006F02D8E9
:100C6800FB6A9BB201E04FF400637B844FF400629F
:100C7800FF213A4803F03FFB7B8C1A463749386B13
:100C8800FFF746FD034683F00103DBB2002B03D0D8
:100C9800002387F82B3056E007F1140300221A606E
:100CA8005A609A6000233B6102237B617B6B03F1EE
:100CB8007843DB0ABB610123FB6107F1100207F1EE
:100CC80014031146184600F0C3FC0346002B03D05A
:100CD800002387F82B3036E000237B621AE07B6A1A
:100CE8001E4A13441C685D6822462B46C7E9022346
:100CF8007A6B7B6AD118D7E90223012000F062FBE6
:100D08000346002B03D0002387F82B3006E07B6ACC
:100D180008337B627B6AB3F5006FE0D37B6B03F526
:100D280000637B637B8C3A6B13443B637B8CFA6A6E
:100D3800D31AFB62FFF7EEFBFB6A002B03D097F890
:100D48002B30002B88D100F0A3FB97F82B301846E6
:100D58003837BD46B0BD00BF00500008D80000209D
:100D680080B586B000AF134B7B617B691B683B6124
:100D78007B695B68FB6001F0BDF900F081F90E4BFF
:100D880000221A600C4B00225A600B4B00229A601A
:100D98003B697B607B6883F3088800BF074B054A83
:100DA8009A60FB68BB60BB68984700BF1837BD46B0
:100DB80080BD00BF0050000810E000E000ED00E03A
:100DC80080B586B000AF00F03BF9FFF78FFDFFF765
:100DD800F5FDFFF783FBFFF7B1FA1D4B0122C3F8BE
:100DE8000821FFF723FBFFF7FDFB3B1D1846FFF724
:100DF8004BFE0346002B22D0BB7C83F00103DBB201
:100E0800002B1CD0FB681846FFF7A6FE0346FB75AF
:100E18003B7CFA7D9A420DD132212020FFF7F6FD66
:100E28003B1D1846FFF702FF0346002B07D0FFF7CC
:100E3800EBFE04E032214FF48070FFF7E7FD044B2E
:100E48000022C3F80021FFF78BFF00BFFDE700BFBA
:100E580000B0004080B483B000AF78604FF0B0437A
:100E68009A6A4FF0B0417B6813438B6200BF0C371E
:100E7800BD4680BC704780B483B000AF78604FF047
:100E8800B0439A6A7B68DB434FF0B04113408B62F2
:100E980000BF0C37BD4680BC704780B483B000AF3C
:100EA80078604FF0B043DA6A4FF0B0417B68134383
:100EB800CB6200BF0C37BD4680BC704780B483B09E
:100EC80000AF78604FF0B043DA6A7B68DB434FF0DD
:100ED800B0411340CB6200BF0C37BD4680BC7047A1
:100EE80080B483B000AF78604FF0B0431A6B4FF016
:100EF800B0417B6813430B6300BF0C37BD4680BC11
:100F0800704780B483B000AF78604FF0B0431A6B7D
:100F18007B68DB434FF0B04113400B6300BF0C37D5
:100F2800BD4680BC704780B483B000AF78604FF096
:100F3800B0439A6B4FF0B0417B6813438B6300BF9B
:100F48000C37BD4680BC704780B483B000AF786072
:100F58004FF0B043DA6B4FF0B0417B681343CB637B
:100F680000BF0C37BD4680BC704780B483B000AF6B
:100F780078604FF0B0439A6B7B68DB434FF0B04129
:100F880013408B6300BF0C37BD4680BC704780B4EC
:100F980083B000AF78604FF0B043DA6B7B68DB4317
:100FA8004FF0B0411340CB6300BF0C37BD4680BC47
:100FB800704780B483B000AF78604FF0B0431A6CCC
:100FC8004FF0B0417B6813430B6400BF0C37BD463C
:100FD80080BC704780B483B000AF78604FF0B043F6
:100FE8001A6C7B68DB434FF0B04113400B6400BFC1
:100FF8000C37BD4680BC704780B483B000AF7860C2
:101008004FF0B0435A6C4FF0B0417B6813434B64C8
:1010180000BF0C37BD4680BC704780B483B000AFBA
:1010280078604FF0B0435A6C7B68DB434FF0B041B7
:1010380013404B6400BF0C37BD4680BC70470000AE
:1010480080B582B000AF0023FB71032000F088F95F
:1010580001F02CFE0346094A13600F2000F056F8F1
:101068000346002B02D00123FB7101E0FFF7C0F813
:10107800FB7918460837BD4680BD00BF0000002038
:1010880080B500AF4FF0FF30FFF74DFF4FF0FF3056
:10109800FFF75AFF4FF0FF30FFF767FF4FF0FF30C1
:1010A800FFF775FF4FF0FF30FFF783FF4FF0FF307A
:1010B800FFF790FF4FF0FF30FFF79EFF4FF0FF3034
:1010C800FFF7ABFF4FF0FF30FFF7C4FE4FF0FF30E4
:1010D800FFF7D1FE4FF0FF30FFF7DFFE4FF0FF3094
:1010E800FFF7ECFE4FF0FF30FFF7FAFE4FF0FF304E
:1010F800FFF707FF00F003F80023184680BD80B40F
:1011080000AF00BFBD4680BC7047000080B584B00A
:1011180000AF78600023FB73174B1B78002B24D09B
:1011280001F0C4FD0246144B1B7819464FF47A733C
:10113800B3FBF1F3B2FBF3F3184600F036F90346BC
:10114800002B0FD17B680F2B09D8002279684FF04C
:10115800FF3000F010F9094A7B68136007E00123AB
:10116800FB7304E00123FB7301E00123FB73FB7BAA
:1011780018461037BD4680BD080000200400002036
:1011880080B400AF054B1B781A46054B1B68134407
:10119800034A136000BFBD4680BC704708000020AA
:1011A800D808002080B400AF024B1B681846BD4623
:1011B80080BC7047D808002080B584B000AF786044
:1011C800FFF7F0FFB8607B68FB60FB68B3F1FF3F97
:1011D80005D00A4B1B781A46FB681344FB6000BF16
:1011E800FFF7E0FF0246BB68D31AFA689A42F7D8BD
:1011F80000BF00BF1037BD4680BD00BF08000020FB
:1012080080B485B000AF78607B6803F00703FB60AB
:101218000C4BDB68BB60BA684FF6FF031340BB603A
:10122800FB681A02BB68134343F0BF6343F40033FF
:10123800BB60044ABB68D36000BF1437BD4680BC9E
:10124800704700BF00ED00E080B400AF044BDB68DE
:101258001B0A03F007031846BD4680BC704700BF51
:1012680000ED00E080B483B000AF03463960FB7145
:1012780097F90730002B0ADB3B68DAB20C4997F97B
:1012880007301201D2B20B4483F800230AE03B680E
:10129800DAB20849FB7903F00F03043B1201D2B21A
:1012A8000B441A7600BF0C37BD4680BC704700BFA0
:1012B80000E100E000ED00E080B489B000AFF86024
:1012C800B9607A60FB6803F00703FB61FB69C3F14F
:1012D8000703042B28BF0423BB61FB690433062BD7
:1012E80002D9FB69033B00E000237B614FF0FF322A
:1012F800BB6902FA03F3DA43BB681A407B699A4078
:101308004FF0FF317B6901FA03F3D9437B680B4047
:10131800134318462437BD4680BC704780B582B059
:1013280000AF78607B68013BB3F1807F01D3012374
:101338000FE00A4A7B68013B53600F214FF0FF30F2
:10134800FFF790FF054B00229A60044B07221A60B2
:10135800002318460837BD4680BD00BF10E000E0F6
:1013680080B582B000AF78607868FFF749FF00BFAA
:101378000837BD4680BD80B586B000AF0346B9606A
:101388007A60FB73FFF760FF78617A68B9687869FB
:10139800FFF792FF024697F90F3011461846FFF7FC
:1013A80061FF00BF1837BD4680BD80B582B000AF71
:1013B80078607868FFF7B2FF034618460837BD46DD
:1013C80080BD000080B586B000AFF860B960C7E99D
:1013D80000231C4B1B78012B01D102232DE0194B54
:1013E80001221A70174B00225A604FF47A7000F0ED
:1013F80069F80346FB75FB7D002B1AD1FB68012BAE
:1014080005D1D7E90023B86800F0BEF804E03B68CE
:101418001946B86800F0DEF84FF47A7000F052F818
:101428000346FB75084B5A69FB68DB4306491340C2
:101438004B61044B00221A70FB7D18461837BD46D5
:1014480080BD00BFDC0800200040005880B483B095
:1014580000AF0023FB710B4B5B69002B0BDA094BC8
:10146800094A9A60074B094A9A60064B5B69002B48
:1014780001DA0123FB71FB7918460C37BD4680BCA5
:10148800704700BF0040005823016745AB89EFCD86
:1014980080B483B000AF0023FB71094B5B69084A35
:1014A80043F000435361064B5B69002B01DB0123CA
:1014B800FB71FB7918460C37BD4680BC704700BFEE
:1014C8000040005880B584B000AF7860FFF76AFE2E
:1014D800F86009E0FFF766FE0246FB68D31A7A68EF
:1014E8009A4201D8032346E0254B1B6903F4803355
:1014F800B3F5803FEED0224B1B69BB60BB6803F09D
:101508000103002B02D01E4B01221A61BA684CF26B
:10151800FA331340BB60BB68B3F1804F07D3184B55
:101528009A69BB6803F04043154913438B61BB6854
:1015380023F04043002B04D0114ABB6823F04043FA
:101548001361BB68002B0ED00E4ABB6853600123A1
:1015580011E0FFF727FE0246FB68D31A7A689A4221
:1015680001D8032307E0064B1B6903F48023B3F576
:10157800802FEED0002318461037BD4680BD00BF2F
:1015880000400058DC08002080B485B000AFF86047
:10159800C7E900230E4B5B690D4A43F00103536111
:1015A800FB683A681A60BFF36F8F00BFD7E9000184
:1015B8004FF000024FF000030A000023F9680431DD
:1015C80013460B6000BF1437BD4680BC704700BF90
:1015D8000040005880B489B000AF7860396040237B
:1015E800FB777B68BB613B687B61184B5B69174A7B
:1015F80043F480235361EFF31083FB60FB683B6186
:1016080072B600BF7B691A68BB691A60BB6904338C
:10161800BB617B6904337B61FB7F013BFB77FB7F0D
:10162800002BEFD100BF094B1B6903F48033B3F5DE
:10163800803FF8D03B69BB60BB6883F3108800BF6C
:1016480000BF2437BD4680BC704700BF004000582B
:1016580080B584B000AF78603960284B1B78012BC7
:1016680001D1022346E0254B01221A70234B0022A8
:101678005A604FF47A70FFF725FF0346FB73FB7B34
:10168800002B33D17B681B68042B08D100F038F895
:101698004FF47A70FFF716FF0346FB7324E03B68AC
:1016A8004FF0FF321A607B685B68BB6012E0B86875
:1016B80000F036F84FF47A70FFF704FF0346FB7327
:1016C800FB7B002B03D03B68BA681A600AE0BB6852
:1016D8000133BB607B685A687B689B681344BA68AF
:1016E8009A42E4D300F078F800F032F8034B002275
:1016F8001A70FB7B18461037BD4680BDDC080020F9
:1017080080B400AF054B5B69044A43F4803343F06F
:101718000403536100BFBD4680BC704700400058B9
:1017280080B483B000AF7860084B5B6923F47E72A5
:101738007B68DB001343054A43F4803343F002031C
:10174800536100BF0C37BD4680BC7047004000584D
:1017580080B400AF1F4B1B6803F40073012B17D133
:101768001C4B1B681B4A23F400731360194B1B683E
:10177800184A43F400631360164B1B68154A23F498
:1017880000631360134B1B68124A43F40073136021
:10179800104B1B6803F48063012B17D10D4B1B689A
:1017A8000C4A23F4806313600A4B1B68094A43F40C
:1017B80080531360074B1B68064A23F48053136059
:1017C800044B1B68034A43F48063136000BFBD46A3
:1017D80080BC70470040005880B400AF054B5B697F
:1017E800044A23F47E7323F00203536100BFBD460D
:1017F80080BC70470040005880B487B000AF786064
:10180800396000237B6140E13B681A6801217B69EC
:1018180001FA03F31340FB60FB68002B00F03281F0
:101828003B685B6803F00303012B05D03B685B68EA
:1018380003F00303022B30D17B689B683B617B6913
:101848005B00032202FA03F3DB433A6913403B616E
:101858003B68DA687B695B0002FA03F33A69134371
:101868003B617B683A699A607B685B683B610122EF
:101878007B6902FA03F3DB433A6913403B613B6837
:101888005B681B0903F001027B6902FA03F33A69FA
:1018980013433B617B683A695A603B685B6803F0B5
:1018A8000303032B17D07B68DB683B617B695B0014
:1018B800032202FA03F3DB433A6913403B613B68B6
:1018C8009A687B695B0002FA03F33A6913433B6148
:1018D8007B683A69DA603B685B6803F00303022BB4
:1018E80023D17B69DA087B68083253F822303B61E0
:1018F8007B6903F007039B000F2202FA03F3DB4323
:101908003A6913403B613B681A697B6903F0070336
:101918009B0002FA03F33A6913433B617B69DA08D7
:101928007B680832396943F822107B681B683B6181
:101938007B695B00032202FA03F3DB433A69134035
:101948003B613B685B6803F003027B695B0002FA5A
:1019580003F33A6913433B617B683A691A603B6851
:101968005B6803F44033002B00F08C804E4A7B699F
:101978009B08023352F823303B617B6903F0030371
:101988009B00072202FA03F3DB433A6913403B61E9
:101998007B68B3F1904F0DD07B68444A934207D0DF
:1019A8007B68434A934201D1022304E0072302E003
:1019B800012300E000237A6902F0030292009340B9
:1019C8003A6913433B6138497B699B0802333A699A
:1019D80041F82320374B1B683B61FB68DB433A69BE
:1019E80013403B613B685B6803F48013002B03D012
:1019F8003A69FB6813433B612E4A3B6913602D4BE0
:101A08005B683B61FB68DB433A6913403B613B68B9
:101A18005B6803F40013002B03D03A69FB68134397
:101A28003B61244A3B695360224BD3F880303B61C9
:101A3800FB68DB433A6913403B613B685B6803F42E
:101A48008033002B03D03A69FB6813433B61194A82
:101A58003B69C2F88030174BD3F884303B61FB6890
:101A6800DB433A6913403B613B685B6803F400332E
:101A7800002B03D03A69FB6813433B610D4A3B696D
:101A8800C2F884307B6901337B613B681A687B69E3
:101A980022FA03F3002B7FF4B7AE00BF00BF1C3758
:101AA800BD4680BC704700BF0000014000040048EC
:101AB800000800480008005880B483B000AF786080
:101AC8000B467B8013467B707B78002B03D07A888B
:101AD8007B689A6102E07A887B689A6200BF0C375B
:101AE800BD4680BC704780B584B000AF78607B6825
:101AF800002B01D1012341E07B681B684CF6CC42E6
:101B08001A607B681B6845F255521A607B681B682F
:101B18007A6852685A607B681B687A6892689A602B
:101B2800FFF740FBF8600FE0FFF73CFB0246FB685D
:101B3800D31A312B08D97B681B68DB6803F00703CD
:101B4800002B01D0032319E07B681B68DB6803F0D6
:101B58000703002BE8D17B681B681A697B68DB6880
:101B68009A4205D07B681B687A68D2681A6104E0DB
:101B78007B681B684AF6AA221A60002318461037A9
:101B8800BD4680BD80B483B000AF78607B681B68B9
:101B98004AF6AA221A60002318460C37BD4680BCB4
:101BA8007047000080B400AF044B1B68034A43F43D
:101BB8008073136000BFBD4680BC704700040058A6
:101BC80080B400AF034B1B6803F4C0631846BD46DE
:101BD80080BC70470004005880B400AF064B1B68F7
:101BE80003F48073B3F5807F01D1012300E0002363
:101BF8001846BD4680BC70470004005880B400AF4A
:101C08004FF0B0431B684FF0B04243F40013136029
:101C180000BFBD4680BC704780B400AF4FF0B043F2
:101C28001B684FF0B04223F40013136000BFBD4699
:101C380080BC704780B400AF4FF0B0431B6803F41A
:101C48008013B3F5801F01D1012300E0002318465B
:101C5800BD4680BC704780B400AF4FF0B0431B68EE
:101C68004FF0B04243F48033136000BFBD4680BCE0
:101C7800704780B400AF4FF0B0431B684FF0B042DC
:101C880023F48033136000BFBD4680BC704780B426
:101C980000AF4FF0B0431B6803F40033B3F5003FC7
:101CA80001D1012300E000231846BD4680BC7047DF
:101CB80080B400AF4FF0B0431B684FF0B04243F41C
:101CC8008073136000BFBD4680BC704780B400AF0E
:101CD8004FF0B0431B684FF0B04223F48073136099
:101CE80000BFBD4680BC704780B400AF4FF0B04322
:101CF8001B6803F48063B3F5806F01D1012300E012
:101D080000231846BD4680BC704780B483B000AF3E
:101D180078604FF0B0435B6823F0FE427B681B0697
:101D28004FF0B04113434B6000BF0C37BD4680BC39
:101D3800704780B400AF4FF0B043D3F8903003F051
:101D48000203022B01D1012300E000231846BD46FF
:101D580080BC704780B400AF4FF0B043D3F89430E4
:101D68004FF0B04243F00103C2F8943000BFBD46C3
:101D780080BC704780B400AF4FF0B043D3F89430C4
:101D88004FF0B04223F00103C2F8943000BFBD46C3
:101D980080BC704780B400AF4FF0B043D3F89430A4
:101DA80003F00203022B01D1012300E000231846AF
:101DB800BD4680BC704780B400AF4FF0B0431B688D
:101DC8004FF0B04243F00103136000BFBD4680BC32
:101DD800704780B400AF4FF0B0431B684FF0B0427B
:101DE80023F00103136000BFBD4680BC704780B478
:101DF80000AF4FF0B0431B6803F00203022B01D180
:101E0800012300E000231846BD4680BC704780B41B
:101E180000AF4FF0B0431B6803F00803082B01D153
:101E2800012300E000231846BD4680BC704780B4FB
:101E380083B000AF78604FF0B0431B6823F0F00226
:101E48004FF0B0417B6813430B6000BF0C37BD46B1
:101E580080BC704780B400AF4FF0B0431B6803F0FC
:101E6800F0031846BD4680BC704780B400AF4FF001
:101E7800B043D3F8943003F470631846BD4680BC71
:101E8800704780B483B000AF78604FF0B0435B68B0
:101E980023F47F427B681B024FF0B04113434B6031
:101EA80000BF0C37BD4680BC704780B483B000AF1C
:101EB80078604FF0B0439B6823F003024FF0B041C5
:101EC8007B6813438B6000BF0C37BD4680BC7047EE
:101ED80080B400AF4FF0B0439B6803F00C03184682
:101EE800BD4680BC704780B483B000AF78604FF0C7
:101EF800B0439B6823F0F0024FF0B0417B68134376
:101F08008B6000BF0C37BD4680BC704780B483B07F
:101F180000AF78604FF0B043D3F8083123F00F02D8
:101F28007B681B094FF0B0411343C1F8083100BF6B
:101F38000C37BD4680BC704780B483B000AF786072
:101F48004FF0B0439B6823F4E0624FF0B0417B68E8
:101F580013438B6000BF0C37BD4680BC704780B40C
:101F680083B000AF78604FF0B0439B6823F46052B1
:101F78004FF0B0417B6813438B6000BF0C37BD4600
:101F880080BC704780B400AF4FF0B0439B6803F04B
:101F9800F0031846BD4680BC704780B400AF4FF0D0
:101FA800B043D3F808311B0103F0F0031846BD46CF
:101FB80080BC704780B400AF4FF0B0431B684FF04F
:101FC800B04243F08073136000BFBD4680BC7047C9
:101FD80080B400AF4FF0B0431B684FF0B04223F01D
:101FE8008073136000BFBD4680BC704780B400AFEB
:101FF8004FF0B0431B6803F00073B3F1007F01D1C9
:10200800012300E000231846BD4680BC704780B419
:1020180000AF4FF0B043DB681B0A03F07F0318469C
:10202800BD4680BC704780B400AF4FF0B043DB685A
:1020380003F060431846BD4680BC704780B400AFCB
:102048004FF0B043DB6803F070031846BD4680BC10
:10205800704780B400AF4FF0B043DB6803F0030370
:102068001846BD4680BC704780B400AF4FF0B043FF
:102078009B6803F48033B3F5803F01D1012300E06E
:1020880000231846BD4680BC704780B400AF4FF0AF
:10209800B043D3F8083103F48033B3F5803F01D15E
:1020A800012300E000231846BD4680BC704780B479
:1020B80000AF4FF0B0439B6803F40033B3F5003F23
:1020C80001D1012300E000231846BD4680BC7047BB
:1020D80080B400AF4FF0B0439B6803F48023B3F59E
:1020E800802F01D1012300E000231846BD4680BCA3
:1020F8007047000080B582B000AFFFF753F87860F2
:10210800FFF759FE08E0FFF74DF802467B68D31A3F
:10211800022B01D9032374E0FFF769FE0346002B65
:10212800F1D06020FFF783FE0020FFF7AAFE4020D1
:10213800FFF7EBFDFFF736F878604FF0B043002269
:102148009A600AE0FFF72EF802467B68D31A41F23C
:102158008832934201D9032353E0FFF7B9FE0346BF
:10216800002BEFD14FF0B0431A684FF0B041274B26
:1021780013400B60FFF716F8786008E0FFF712F8D5
:1021880002467B68D31A642B01D9032339E0FFF791
:102198007EFD0346002BF1D1FFF73EFDFFF702F865
:1021A800786008E0FEF7FEFF02467B68D31A0A2B28
:1021B80001D9032325E0FFF719FF0346002BF1D1CE
:1021C8004FF0B043124ADA604FF0B04300229A61F0
:1021D8004FF0B0434FF0FF321A624FF0B0434FF464
:1021E8004032C3F808210B4B0B4A1A600B4B1B6893
:1021F8001846FEF78BFF0346002B01D0012300E0B1
:10220800002318460837BD4680BD00BFFFF4EEFE28
:10221800000104220000002000093D000400002005
:1022280080B588B000AF78607B68002B01D10123AE
:102238006FE3FFF74DFEF861FFF70BFFB8617B68AE
:102248001B6803F02003002B00F0C480FB69002BFF
:1022580005D0FB690C2B76D1BB69012B73D17B6848
:102268001B6A002B01D1012353E37B689A6A4FF064
:10227800B0431B6803F00803002B05D04FF0B043B0
:102288001B6803F0F00306E04FF0B043D3F8943036
:102298001B0903F0F003934222D27B689B6A18461D
:1022A80000F018FD0346002B01D0012331E34FF065
:1022B800B0431B684FF0B04243F0080313604FF07F
:1022C800B0431B6823F0F0027B689B6A4FF0B04173
:1022D80013430B607B685B6A1846FFF7D2FD21E069
:1022E8004FF0B0431B684FF0B04243F0080313604F
:1022F8004FF0B0431B6823F0F0027B689B6A4FF0F5
:10230800B04113430B607B685B6A1846FFF7B9FD61
:102318007B689B6A184600F0DDFC0346002B01D061
:102328000123F6E200F0C2FC0346A74A1360A74B5C
:102338001B681846FEF7EAFE0346FB74FB7C002B7D
:1023480047D0FB7CE5E27B681B6A002B2CD0FFF7AB
:1023580032FDFEF727FF786108E0FEF723FF02460B
:102368007B69D31A022B01D90323D2E2FFF73FFD81
:102378000346002BF1D04FF0B0431B684FF0B0423A
:1023880043F0080313604FF0B0431B6823F0F002DA
:102398007B689B6A4FF0B04113430B607B685B6AB4
:1023A8001846FFF76EFD15E0FFF713FDFEF7FAFE7E
:1023B800786108E0FEF7F6FE02467B69D31A022B25
:1023C80001D90323A5E2FFF712FD0346002BF1D143
:1023D80000E000BF7B681B6803F00103002B58D0A6
:1023E800FB69082B05D0FB690C2B08D1BB69032BB3
:1023F80005D17B685B68002B4BD1012389E24FF044
:10240800B0431B6823F480127B689B684FF0B0418F
:1024180013430B607B685B68B3F5803F02D1FFF71D
:102428001AFC0DE07B685B68B3F5041F04D1FFF765
:10243800E5FBFFF710FC03E0FFF71BFCFFF7ECFBE5
:102448007B685B68002B12D0FEF7ACFE786108E071
:10245800FEF7A8FE02467B69D31A642B01D9032331
:1024680057E2FFF714FC0346002BF1D011E0FEF70A
:1024780099FE786108E0FEF795FE02467B69D31A5B
:10248800642B01D9032344E2FFF701FC0346002B28
:10249800F1D17B681B6803F00203002B46D0FB696F
:1024A800042B05D0FB690C2B0ED1BB69022B0BD179
:1024B8007B681B69002B01D101232AE27B685B69D9
:1024C8001846FFF722FC31E07B681B69002B19D006
:1024D800FFF7EEFBFEF766FE786108E0FEF762FEA6
:1024E80002467B69D31A022B01D9032311E2FFF7B5
:1024F800FBFB0346002BF1D07B685B691846FFF7AE
:1025080004FC13E0FFF7E2FBFEF74CFE786108E0FD
:10251800FEF748FE02467B69D31A022B01D9032332
:10252800F7E1FFF7E1FB0346002BF1D17B681B685D
:1025380003F00803002B6ED07B689B69002B56D0F4
:102548004FF0B043D3F89430FB607B68DA69FB68DE
:1025580003F010039A4231D0FB6803F00203002B0A
:1025680006D0FB6803F00103002B01D10123D0E161
:10257800FB6803F00103002B13D0FFF7FBFBFEF70A
:1025880011FE786108E0FEF70DFE02467B69D31A5A
:10259800112B01D90323BCE1FFF7FCFB0346002BF9
:1025A800F1D14FF0B043D3F8943023F010027B6898
:1025B800DB694FF0B0411343C1F89430FFF7CAFB11
:1025C800FEF7F0FD78610CE0000000200400002018
:1025D800FEF7E8FD02467B69D31A112B01D90323C4
:1025E80097E1FFF7D7FB0346002BF1D013E0FFF785
:1025F800C1FBFEF7D7FD786108E0FEF7D3FD024680
:102608007B69D31A112B01D9032382E1FFF7C2FB9F
:102618000346002BF1D17B681B6803F00403002BF1
:1026280000F0D880FFF7D8FA0346002B13D1FFF744
:10263800B9FAFEF7B7FD786108E0FEF7B3FD024688
:102648007B69D31A022B01D9032362E1FFF7C4FA8D
:102658000346002BF1D07B68DB68002B7BD07B68BE
:10266800DB68852B03D07B68DB68052B09D14FF02D
:10267800B043D3F890304FF0B04243F00403C2F8AF
:102688009030FEF78FFD78614FF0B043D3F890306B
:102698004FF0B04243F00103C2F890300AE0FEF771
:1026A80081FD02467B69D31A41F28832934201D9EF
:1026B80003232EE1FFF73DFB0346002BEFD07B6899
:1026C800DB68812B03D07B68DB68852B21D1FEF783
:1026D80069FD78614FF0B043D3F890304FF0B042C5
:1026E80043F08003C2F890300AE0FEF75BFD024633
:1026F8007B69D31A41F28832934201D9032308E156
:102708004FF0B043D3F8903003F40063002BECD0C3
:1027180060E0FEF747FD78614FF0B043D3F89030A2
:102728004FF0B04223F08003C2F890300AE0FEF781
:1027380039FD02467B69D31A41F28832934201D9A6
:102748000323E6E04FF0B043D3F8903003F400637E
:10275800002BECD13EE0FEF725FD78614FF0B04349
:10276800D3F890304FF0B04223F08003C2F8903095
:102778000AE0FEF717FD02467B69D31A41F2883258
:10278800934201D90323C4E04FF0B043D3F890300B
:1027980003F40063002BECD1FEF704FD78614FF0E1
:1027A800B043D3F890304FF0B04223F00103C2F8A1
:1027B80090300AE0FEF7F6FC02467B69D31A41F234
:1027C8008832934201D90323A3E0FFF7B2FA034604
:1027D800002BEFD17B68DB6A002B00F09980FB6946
:1027E8000C2B6CD07B68DB6A022B4BD1FFF7F0FB1C
:1027F800FEF7D8FC786108E0FEF7D4FC02467B6956
:10280800D31A0A2B01D9032383E0FFF7EFFB034612
:10281800002BF1D14FF0B043DA68404B13407A688F
:10282800116B7A68526B11437A68926B12021143EA
:102838007A68D26B11437A68126C11437A68526CC9
:102848000A434FF0B0411343CB60FFF7B3FB4FF09F
:10285800B043DB684FF0B04243F08053D360FEF7DB
:10286800A1FC786108E0FEF79DFC02467B69D31A5B
:102878000A2B01D903234CE0FFF7B8FB0346002BD2
:10288800F1D045E0FFF7A4FBFEF78CFC786108E087
:10289800FEF788FC02467B69D31A0A2B01D9032369
:1028A80037E0FFF7A3FB0346002BF1D14FF0B0430D
:1028B800DA684FF0B0411A4B1340CB6028E07B68D0
:1028C800DB6A012B01D1012323E04FF0B043DB6821
:1028D800BB61BB6903F003027B681B6B9A4215D18D
:1028E800BB6903F070027B685B6B9A420ED1BB69CF
:1028F80003F4FE427B689B6B1B029A4206D1BB69BC
:1029080003F060427B685B6C9A4201D0012300E0CF
:10291800002318462037BD4680BD00BF8C80C111FA
:10292800FCFFFEEE80B584B000AF786039607B684C
:10293800002B01D101230FE1894B1B6803F007032A
:102948003A689A421BD9864B1B6823F007028449D0
:102958003B6813430B60FEF725FCF86008E0FEF7C0
:1029680021FC0246FB68D31A022B01D90323F3E0AA
:102978007B4B1B6803F007033A689A42EFD17B68E8
:102988001B6803F00203002B16D07B689B6818466F
:10299800FFF7A9FAFEF706FCF86008E0FEF702FC6C
:1029A8000246FB68D31A022B01D90323D4E0FFF7B0
:1029B8005BFB0346002BF1D07B681B6803F04003E8
:1029C800002B16D07B685B691846FFF79FFAFEF765
:1029D800E9FBF86008E0FEF7E5FB0246FB68D31A5E
:1029E800022B01D90323B7E0FFF74FFB0346002B67
:1029F800F1D07B681B6803F00403002B16D07B68BA
:102A0800DB681846FFF798FAFEF7CCFBF86008E099
:102A1800FEF7C8FB0246FB68D31A022B01D9032331
:102A28009AE0FFF744FB0346002BF1D07B681B6854
:102A380003F00803002B17D07B681B69DB001846DE
:102A4800FFF78DFAFEF7AEFBF86008E0FEF7AAFB89
:102A58000246FB68D31A022B01D903237CE0FFF757
:102A680037FB0346002BF1D07B681B6803F001039A
:102A7800002B43D07B685B68022B06D1FFF707F970
:102A88000346002B1ED1012366E07B685B68032B9D
:102A980006D1FFF7ABFA0346002B13D101235BE005
:102AA8007B685B68002B06D1FFF7A1F90346002B72
:102AB80008D1012350E0FFF717F90346002B01D195
:102AC800012349E07B685B681846FFF7EEF9FEF7DB
:102AD80069FBF8600AE0FEF765FB0246FB68D31A5B
:102AE80041F28832934201D9032335E0FFF7F0F928
:102AF80002467B685B689B009A42ECD1184B1B68C6
:102B080003F007033A689A421BD2154B1B6823F05F
:102B1800070213493B6813430B60FEF743FBF86059
:102B280008E0FEF73FFB0246FB68D31A022B01D9E7
:102B3800032311E00A4B1B6803F007033A689A4223
:102B4800EFD100F0B3F80346064A1360064B1B6842
:102B58001846FEF7DBFA034618461037BD4680BD17
:102B680000400058000000200400002090B587B005
:102B780000AF00237B6100233B61FFF7A9F9B86030
:102B8800FFF767FA7860BB68002B05D0BB680C2B91
:102B980039D17B68012B36D1FFF739F90346002B71
:102BA80015D1FFF734F90346012B06D1FFF752F987
:102BB80003461B0A03F00F0305E0FFF756F9034627
:102BC8001B0A03F00F03364A52F8233014E0FFF7CC
:102BD8001EF90346012B06D1FFF73CF903461B09F2
:102BE80003F00F0305E0FFF740F903461B0903F064
:102BF8000F032B4A52F823303B61BB68002B15D1D9
:102C08003B697B6112E0BB68042B02D1254B7B61D9
:102C18000CE0BB68082B09D1FFF70CF80346012B21
:102C280002D1204B7B6101E01F4B7B61FFF750F91C
:102C380003460C2B2FD1FFF70CFA78607B68022B28
:102C480003D07B68032B03D00DE0164BFB600DE02F
:102C5800FEF7F0FF0346012B02D1124BFB6005E0A3
:102C6800114BFB6002E03B69FB6000BFFFF7CFF947
:102C78000246FB6803FB02F4FFF7E0F903461B0971
:102C88000133B4FBF3F4FFF7CEF903465B0F0133CE
:102C9800B4FBF3F37B617B6918461C37BD4690BDD6
:102CA800D04300080024F4000048E80198B500AFBC
:102CB800FFF75CFF0446FFF765F903461B0903F0BD
:102CC8000F03034A52F82330B4FBF3F3184698BDB8
:102CD8009043000890B585B000AF78607B681B0909
:102CE80003F00F03104A52F82330FB60FFF755F941
:102CF80003461B0903F00F030C4A52F82330FA6805
:102D0800B2FBF3F3BB60BB68094AA2FB03239C0C2C
:102D1800FEF756FF03461946204600F00BF8034617
:102D280018461437BD4690BDD043000890430008AC
:102D380083DE1B4380B58EB000AF786039603A4AB5
:102D480007F1200392E80300186004331980374A1A
:102D580007F1180392E80300186004331980344A15
:102D680007F10C0307CA83E8070000237B633B686D
:102D7800B3F5007F1BD100233B6314E03B6B5B0082
:102D880038333B4433F8183C1A467B68934207D8DB
:102D98003B6B9B0038333B4453F82C3C7B6321E06E
:102DA8003B6B01333B633B6B022BE7D91AE00023F3
:102DB800FB6214E0FB6A5B0038333B4433F8203C89
:102DC8001A467B68934207D8FB6A9B0038333B441A
:102DD80053F82C3C7B6305E0FB6A0133FB62FB6A1A
:102DE800022BE7D9134B1B6823F0070211497B6BB1
:102DF80013430B60FEF7D6F9B86208E0FEF7D2F984
:102E08000246BB6AD31A022B01D9032307E0094BF8
:102E18001B6803F007037A6B9A42EFD10023184628
:102E28003837BD4680BD00BF744300087C430008A6
:102E3800844300080040005880B400AF4FF0B0430E
:102E4800D3F8903003F00203022B01D1012300E0F4
:102E580000231846BD4680BC704780B483B000AFDD
:102E680078604FF0B043D3F888207B681B0CDB43B5
:102E78001A407B689BB24FF0B0411343C1F88830C9
:102E880000BF0C37BD4680BC704780B483B000AF2C
:102E980078604FF0B043D3F8883023F440724FF095
:102EA800B0417B681343C1F8883000BF0C37BD467A
:102EB80080BC704780B483B000AF78604FF0B043F7
:102EC800D3F8883023F440624FF0B0417B68134355
:102ED800C1F8883000BF0C37BD4680BC704780B44D
:102EE80083B000AF78604FF0B043D3F888207B6898
:102EF8001B0903F47F23DB431A407B681B0103F49F
:102F08007F234FF0B0411343C1F8883000BF0C371E
:102F1800BD4680BC704780B483B000AF78604FF086
:102F2800B043D3F888207B681B0C1B04DB431A4092
:102F38007B681B044FF0B0411343C1F8883000BFD1
:102F48000C37BD4680BC704780B483B000AF786052
:102F58004FF0B043D3F8883023F040424FF0B041EF
:102F68007B681343C1F8883000BF0C37BD4680BC6E
:102F7800704780B483B000AF78604FF0B043D3F8A7
:102F8800883023F040524FF0B0417B681343C1F8BA
:102F9800883000BF0C37BD4680BC704780B483B012
:102FA80000AF78604FF0B043D3F8903023F440720C
:102FB8004FF0B0417B681343C1F8903000BF0C3725
:102FC800BD4680BC704780B400AF4FF0B043D3F823
:102FD800903003F440731846BD4680BC704780B4F7
:102FE80000AF4FF0B043D3F890304FF0B04243F405
:102FF8008033C2F8903000BFBD4680BC704780B4B3
:1030080000AF4FF0B043D3F890304FF0B04223F404
:103018008033C2F8903000BFBD4680BC70470000C6
:1030280080B586B000AF786000237B610023FB7415
:103038000023BB747B681B6803F48033002B58D0D3
:10304800FEF7B0FDFEF7AEF8F86009E0FEF7AAF863
:103058000246FB68D31A022B02D90323FB7406E04D
:103068007B4B1B6803F48073B3F5807FEED1FB7C48
:10307800002B3CD1FFF7A7FF02467B685B6B9A42A7
:103088000FD04FF0B043D3F8903023F440737B61F6
:10309800FFF7A5FFFFF7B3FF4FF0B0427B69C2F817
:1030A80090307B6903F00203002B14D0FEF77AF806
:1030B800F8600BE0FEF776F80246FB68D31A41F297
:1030C8008832934202D90323FB7404E0FFF7B4FE6D
:1030D8000346012BEED1FB7C002B05D17B685B6B93
:1030E8001846FFF75BFF04E0FB7CBB7401E0FB7C48
:1030F800BB747B681B6803F00103002B04D07B685A
:103108005B681846FFF7A9FE7B681B6803F002039B
:10311800002B04D07B689B681846FFF79EFE7B68EF
:103128001B6803F02003002B04D07B681B6918463A
:10313800FFF7C0FE7B681B6803F40073002B04D004
:103148007B681B6A1846FFF7E6FE7B681B6803F47A
:103158008063002B04D07B685B6A1846FFF7DBFEB0
:103168007B681B6803F40063002B04D07B689B6AB0
:103178001846FFF7D0FE7B681B6803F04003002B5E
:1031880004D07B685B691846FFF7A9FE7B681B685B
:1031980003F08003002B04D07B689B691846FFF777
:1031A8009EFE7B681B6803F48073002B04D07B6849
:1031B800DB691846FFF793FE7B681B6803F0100372
:1031C800002B11D07B68DB681846FFF75EFE7B6832
:1031D800DB68B3F5807F07D14FF0B043DB684FF071
:1031E800B04243F08073D3607B681B6803F40043EC
:1031F800002B10D07B681B6B1846FFF7A5FE7B6879
:103208001B6B002B07D14FF0B043DB684FF0B04287
:1032180043F08073D3607B681B6803F48043002B02
:1032280011D07B68DB6A1846FFF7A3FE7B68DB6A70
:10323800B3F1005F07D14FF0B043DB684FF0B04205
:1032480043F48033D360BB7C18461837BD4680BD35
:103258000004005880B584B000AF78600123FB7388
:103268007B68002B71D07B6893F82D30DBB2002B84
:1032780006D17B68002283F82C207868FCF7C2FF0F
:103288007B68022283F82D20324BDB6803F01003A1
:10329800102B51D02F4BCA225A622E4B53225A62FE
:1032A800786800F07FF80346FB73FB7B002B3FD167
:1032B800284B9B69274A23F08E6323F040039361D0
:1032C800244B9A697B6859687B681B6919437B683A
:1032D8009B690B431F4913438B617B68DA687B68E2
:1032E8009B681B041B4913430B611A4BDB6823F4CF
:1032F800F8527B68596A7B689B6A0B4315491343EC
:10330800CB60786800F082F80346FB73FB7B002BE8
:103318000ED1104B9B6923F060427B68196A7B6869
:10332800DB6919437B685B690B430A4913438B616B
:10333800084BFF225A6201E00023FB73FB7B002B42
:1033480003D17B68012283F82D20FB7B18461037B8
:10335800BD4680BD0028004080B584B000AF7860CD
:103368000F4BDB680E4A23F02003D360FDF71AFFEA
:10337800F86009E0FDF716FF0246FB68D31AB3F5BB
:103388007A7F01D9032306E0054BDB6803F02003AD
:10339800002BEFD0002318461037BD4680BD00BF74
:1033A8000028004080B584B000AF78600023FB732C
:1033B800154BDB6803F04003002B20D1124BDB6870
:1033C800114A43F08003D360FDF7ECFEB8600DE0CE
:1033D800FDF7E8FE0246BB68D31AB3F57A7F05D934
:1033E8000323FB737B68032283F82D20064BDB68DD
:1033F80003F04003002B02D1FB7B032BE8D1FB7BBE
:1034080018461037BD4680BD0028004080B584B0FE
:1034180000AF78600023FB731A4BDB68194A23F06E
:103428008003D360174B9B6903F02003002B0CD15A
:103438007868FFF791FF0346002B1ED07B680322B4
:1034480083F82D200323FB7317E00E4B9B690D4A6D
:1034580023F0200393617868FFF77EFF0346002B73
:1034680005D07B68032283F82D200323FB73054BCB
:103478009B69044A43F020039361FB7B184610378D
:10348800BD4680BD0028004080B584B000AF78609C
:103498007B68002B01D10123C6E07B685B6A002BA7
:1034A80008D17B685B68B3F5827F09D07B6800220E
:1034B800DA6105E07B6800221A617B6800225A61A4
:1034C8007B6893F85D30DBB2002B06D17B68002265
:1034D80083F85C207868FCF7C3FE7B68022283F8D7
:1034E8005D207B681B681A687B681B6822F04002B5
:1034F8001A607B68DB68B3F5E06F02D90023FB60D4
:1035080002E04FF48053FB607B68DB68B3F5706FB3
:1035180007D07B68DB68B3F5E06F02D07B680022D8
:103528009A627B685B6803F482727B689B6803F429
:1035380004431A437B681B6903F002031A437B6840
:103548005B6903F001031A437B689B6903F400730A
:103558001A437B68DB6903F038031A437B681B6AEC
:1035680003F0800342EA03017B689B6A03F400527C
:103578007B681B680A431A607B689B6AB3F5005F27
:103588001BD17B681B6B002B0BD17B68DB68B3F509
:10359800E06F03D97B6802221A6302E07B6801228C
:1035A8001A637B681B6B022B07D17B681B681A6840
:1035B8007B681B6842F400621A607B689B691B0C7D
:1035C80003F004027B685B6A03F010031A437B680C
:1035D8005B6B03F008031A437B68DB6803F47063D2
:1035E80042EA0301FB6803F480527B681B680A43C4
:1035F8005A607B689B6AB3F5005F05D17B68DA6A1D
:103608007B681B6892B21A617B681B68DA697B6801
:103618001B6822F40062DA617B6800221A667B6804
:10362800012283F85D20002318461037BD4680BD6F
:1036380080B588B000AFF860B9603B601346FB8086
:103648000023FB77FB6893F85C30012B01D1022340
:1036580081E1FB68012283F85C20FDF7A3FDB861D6
:10366800FB88FB82FB6893F85D30DBB2012B02D04C
:103678000223FB776AE1BB68002B02D0FB88002B92
:1036880002D10123FB7761E1FB68032283F85D2007
:10369800FB6800221A66FB68BA689A63FB68FA88B6
:1036A8009A87FB68FA88DA87FB6800221A64FB6845
:1036B8000022A3F84420FB680022A3F84620FB68F8
:1036C80000221A65FB680022DA64FB689B68B3F580
:1036D800004F0FD1FB681B681A68FB681B6822F053
:1036E80040021A60FB681B681A68FB681B6842F492
:1036F80080421A60FB689B6AB3F5005F0FD1FB68D4
:103708001B681A68FB681B6822F400521A60FB6881
:103718001B681A68FB681B6842F400521A60FB6851
:103728001B681B6803F04003402B07D0FB681B682D
:103738001A68FB681B6842F040021A60FB68DB6885
:10374800B3F5E06F4FD9FB685B68002B02D0FB8AAA
:10375800012B42D1FB689B6B1A88FB681B68DA60F7
:10376800FB689B6B9A1CFB689A63FB68DB8F9BB2B8
:10377800013B9AB2FB68DA872FE0FB681B689B68FD
:1037880003F00203022B12D1FB689B6B1A88FB68BB
:103798001B68DA60FB689B6B9A1CFB689A63FB6882
:1037A800DB8F9BB2013B9AB2FB68DA8715E0FDF725
:1037B800F9FC0246BB69D31A3A689A4203D83B68B7
:1037C800B3F1FF3F02D13B68002B06D10323FB77FF
:1037D800FB68012283F85D20B8E0FB68DB8F9BB2B1
:1037E800002BCAD180E0FB685B68002B02D0FB8A03
:1037F800012B74D1FB68DB8F9BB2012B12D9FB68BC
:103808009B6B1A88FB681B68DA60FB689B6B9A1CC9
:10381800FB689A63FB68DB8F9BB2023B9AB2FB683A
:10382800DA875CE0FB689A6BFB681B680C331278DC
:103838001A70FB689B6B5A1CFB689A63FB68DB8FEA
:103848009BB2013B9AB2FB68DA8748E0FB681B68C9
:103858009B6803F00203022B2BD1FB68DB8F9BB222
:10386800012B12D9FB689B6B1A88FB681B68DA600E
:10387800FB689B6B9A1CFB689A63FB68DB8F9BB2A7
:10388800023B9AB2FB68DA8729E0FB689A6BFB680F
:103898001B680C3312781A70FB689B6B5A1CFB6808
:1038A8009A63FB68DB8F9BB2013B9AB2FB68DA87AD
:1038B80015E0FDF777FC0246BB69D31A3A689A42CD
:1038C80003D83B68B3F1FF3F02D13B68002B06D118
:1038D8000323FB77FB68012283F85D2036E0FB6851
:1038E800DB8F9BB2002BB1D1FB689B6AB3F5005FFD
:1038F80007D1FB681B681A68FB681B6842F4805292
:103908001A60BA693968F86800F086FC0346002B2B
:1039180002D0FB6820221A66FB689B68002B0AD13C
:1039280000233B61FB681B68DB683B61FB681B6825
:103938009B683B613B69FB681B6E002B02D001232F
:10394800FB7703E0FB68012283F85D20FB68002217
:1039580083F85C20FB7F18462037BD4680BD80B5C4
:1039680092B002AFF860B9607A607B800023BB61D7
:103978000023FB750123FB63002387F83B30FB68BA
:1039880093F85C30012B01D1022322E3FB6801226A
:1039980083F85C20FDF706FC7863FB6893F85D30DC
:1039A80087F83330FB685B68FB627B887B857B88A4
:1039B8003B85FB681B681B687B62FB681B685B6850
:1039C8003B6297F83330012B0FD0FB6AB3F5827F47
:1039D80007D1FB689B68002B03D197F83330042B81
:1039E80003D0022387F83B30EDE2BB68002B05D0FB
:1039F8007B68002B02D07B88002B03D1012387F83A
:103A08003B30E0E2FB6893F85D30DBB2042B03D077
:103A1800FB68052283F85D20FB6800221A66FB68B4
:103A28007A681A64FB687A88A3F84620FB687A8863
:103A3800A3F84420FB68BA689A63FB687A88DA8737
:103A4800FB687A889A87FB680022DA64FB680022A0
:103A58001A65FB689B6AB3F5005F0FD1FB681B68AA
:103A68001A68FB681B6822F400521A60FB681B681E
:103A78001A68FB681B6842F400521A60FB68DB682E
:103A8800B3F5E06F02D83B8D012B08D9FB681B68A2
:103A98005A68FB681B6822F480525A6007E0FB688A
:103AA8001B685A68FB681B6842F480525A60FB68BE
:103AB8001B681B6803F04003402B07D0FB681B689A
:103AC8001A68FB681B6842F040021A60FB68DB68F2
:103AD800B3F5E06F40F2CE80FB685B68002B03D043
:103AE8007B8D012B40F0B880FB689B6B1A88FB68C4
:103AF8001B68DA60FB689B6B9A1CFB689A63FB681F
:103B0800DB8F9BB2013B9AB2FB68DA87FB68DB8FDD
:103B18009BB2002B40F0A080FB689B6AB3F5005F66
:103B280040F09A807B6A03F00403002B0CD13B6AB7
:103B380003F00803002B07D0FB681B681A68FB68B2
:103B48001B6842F400721A60FB681B681A68FB68FD
:103B58001B6842F480521A607EE0FB681B689B6811
:103B680003F00203022B3FD1FB68DB8F9BB2002BD3
:103B78003AD0FB6B012B37D1FB689B6B1A88FB682B
:103B88001B68DA60FB689B6B9A1CFB689A63FB688E
:103B9800DB8F9BB2013B9AB2FB68DA870023FB6399
:103BA800FB68DB8F9BB2002B1ED1FB689B6AB3F5C9
:103BB800005F19D17B6A03F00403002B0CD13B6A28
:103BC80003F00803002B07D0FB681B681A68FB6822
:103BD8001B6842F400721A60FB681B681A68FB686D
:103BE8001B6842F480521A60FB681B689B6803F0EC
:103BF8000103012B1CD1FB68B3F846309BB2002BA4
:103C080016D0FB681B68DA68FB681B6C92B21A80D6
:103C1800FB681B6C9A1CFB681A64FB68B3F8463097
:103C28009BB2013B9AB2FB68A3F846200123FB63D1
:103C3800FDF7B8FA02467B6BD31ABA6C9A420BD8D6
:103C4800BB6CB3F1FF3F07D0032387F83B30FB6819
:103C5800012283F85D20B6E1FB68DB8F9BB2002B65
:103C68007FF47BAFFB68B3F846309BB2002B7FF440
:103C780074AF2DE1FB685B68002B03D07B8D012BB3
:103C880040F01981FB68DB8F9BB2012B12D9FB68CE
:103C98009B6B1A88FB681B68DA60FB689B6B9A1C35
:103CA800FB689A63FB68DB8F9BB2023B9AB2FB68A6
:103CB800DA8700E1FB689A6BFB681B680C331278A3
:103CC8001A70FB689B6B5A1CFB689A63FB68DB8F56
:103CD8009BB2013B9AB2FB68DA87FB68DB8F9BB229
:103CE800002B40F0E880FB689B6AB3F5005F40F06A
:103CF800E2807B6A03F00403002B0CD13B6A03F0DB
:103D08000803002B07D0FB681B681A68FB681B6850
:103D180042F400721A60FB681B681A68FB681B682B
:103D280042F480521A60C6E0FB681B689B6803F087
:103D38000203022B58D1FB68DB8F9BB2002B53D0B8
:103D4800FB6B012B50D1FB68DB8F9BB2012B12D987
:103D5800FB689B6B1A88FB681B68DA60FB689B6BC7
:103D68009A1CFB689A63FB68DB8F9BB2023B9AB292
:103D7800FB68DA8712E0FB689A6BFB681B680C33F8
:103D880012781A70FB689B6B5A1CFB689A63FB6875
:103D9800DB8F9BB2013B9AB2FB68DA870023FB6397
:103DA800FB68DB8F9BB2002B1ED1FB689B6AB3F5C7
:103DB800005F19D17B6A03F00403002B0CD13B6A26
:103DC80003F00803002B07D0FB681B681A68FB6820
:103DD8001B6842F400721A60FB681B681A68FB686B
:103DE8001B6842F480521A60FB681B689B6803F0EA
:103DF8000103012B48D1FB68B3F846309BB2002B76
:103E080042D0FB68B3F846309BB2012B23D9FB683C
:103E18001B68DA68FB681B6C92B21A80FB681B6C23
:103E28009A1CFB681A64FB68B3F846309BB2023BE5
:103E38009AB2FB68A3F84620FB68B3F846309BB2F9
:103E4800012B1FD8FB681B685A68FB681B6842F483
:103E580080525A6016E0FB681B6803F10C02FB688D
:103E68001B6C1278D2B21A70FB681B6C5A1CFB6868
:103E78001A64FB68B3F846309BB2013B9AB2FB6800
:103E8800A3F846200123FB63FDF78CF902467B6B00
:103E9800D31ABA6C9A4203D8BB6CB3F1FF3F02D174
:103EA800BB6C002B07D1032387F83B30FB6801224A
:103EB80083F85D2087E0FB68DB8F9BB2002B7FF4E3
:103EC80033AFFB68B3F846309BB2002B7FF42CAFBE
:103ED800FB689B6AB3F5005F46D17B6B0093BB6CB4
:103EE80001220121F86800F079F80346002B09D077
:103EF800FB681B6E43F00202FB681A66032387F80F
:103F08003B3060E0FB68DB68B3F5706F05D1FB6898
:103F18001B68DB68BB61BB6926E0FB681B680C3368
:103F2800FB61FB691B78DBB2FB75FB7DFB681B6BD8
:103F3800022B19D17B6B0093BB6C01220121F8681D
:103F480000F04CF80346002B09D0FB681B6E43F0C9
:103F58000202FB681A66032387F83B3033E0FB69EB
:103F68001B78DBB2FB75FB7DFB681B689B6803F065
:103F78001003102B0DD1FB681B6E43F00202FB6887
:103F88001A66FB681B684FF6EF729A60012387F880
:103F98003B307A6BB96CF86800F03EF90346002BA9
:103FA80005D0012387F83B30FB6820221A66FB689E
:103FB8001B6E002B03D0012387F83B3003E0FB681E
:103FC800012283F85D20FB68002283F85C2097F8C3
:103FD8003B3018464037BD4680BD000080B588B0EC
:103FE80000AFF860B9603B601346FB71FDF7DAF883
:103FF8000246BB6A9B1A3A681344FB61FDF7D2F884
:10400800B861394B1B685B011B0DFA6902FB03F3AE
:104018007B6154E03B68B3F1FF3F50D0FDF7C2F835
:104028000246BB69D31AFA699A4202D9FB69002B86
:104038003DD1FB681B685A68FB681B6822F0E002E8
:104048005A60FB685B68B3F5827F11D1FB689B6897
:10405800B3F5004F04D0FB689B68B3F5806F07D1B8
:10406800FB681B681A68FB681B6822F040021A602C
:10407800FB689B6AB3F5005F0FD1FB681B681A6881
:10408800FB681B6822F400521A60FB681B681A68F8
:10409800FB681B6842F400521A60FB68012283F82F
:1040A8005D20FB68002283F85C20032317E07B690E
:1040B800002B01D10023FB617B69013B7B61FB681D
:1040C8001B689A68BB681340BA689A420CBF012300
:1040D8000023DBB21A46FB799A429BD1002318468B
:1040E8002037BD4680BD00BF0000002080B58AB0E3
:1040F80000AFF860B9607A603B600023FB75FDF79C
:1041080051F802463B6B9B1A3A6813447B62FDF7F1
:1041180049F83862FB681B680C33FB613D4B1A6831
:1041280013469B001344DA00D31A1B0D7A6A02FB6C
:1041380003F3BB6160E0BB68B3F5C06F07D17B6870
:10414800002B04D1FB691B78DBB2FB75FB7D3B6858
:10415800B3F1FF3F50D0FDF725F802463B6AD31A6A
:104168007A6A9A4202D97B6A002B3DD1FB681B68A8
:104178005A68FB681B6822F0E0025A60FB685B68BB
:10418800B3F5827F11D1FB689B68B3F5004F04D06B
:10419800FB689B68B3F5806F07D1FB681B681A68DA
:1041A800FB681B6822F040021A60FB689B6AB3F543
:1041B800005F0FD1FB681B681A68FB681B6822F454
:1041C80000521A60FB681B681A68FB681B6842F497
:1041D80000521A60FB68012283F85D20FB68002208
:1041E80083F85C20032310E0BB69002B01D1002376
:1041F8007B62BB69013BBB61FB681B689A68BB6853
:1042080013407A689A4296D1002318462837BD464B
:1042180080BD00BF0000002080B586B002AFF86006
:10422800B9607A607B680093BB6800224FF4C05184
:10423800F868FFF75BFF0346002B07D0FB681B6E8F
:1042480043F02002FB681A66032327E07B6800938B
:10425800BB6800228021F868FFF7C0FE0346002BE8
:1042680007D0FB681B6E43F02002FB681A66032325
:1042780014E07B680093BB6800224FF4C061F868C3
:10428800FFF734FF0346002B07D0FB681B6E43F093
:104298002002FB681A66032300E000231846103743
:1042A800BD4680BD0D488546FCF742F80C480D49CF
:1042B8000D4A002302E0D458C4500433C4188C4279
:1042C800F9D30A4A0A4C002301E013600432A242DF
:1042D800FBD300F019F8FCF773FDFEE7000001209E
:1042E800000000200C000020184400080C000020EA
:1042F800F4080020FEE702440346934200D17047C9
:1043080003F8011BF9E7000070B50D4D0D4C641B57
:10431800A4100026A64209D10B4D0C4C00F018F849
:10432800641BA4100026A64205D170BD55F8043BB5
:1043380098470136EEE755F8043B98470136F2E70F
:1043480010440008104400081044000814440008F1
:10435800F8B500BFF8BC08BC9E467047F8B500BF6A
:08436800F8BC08BC9E4670473A
:1043700000000000120024003000000006000C00C5
:10438000100000000000000001000000020000001A
:104390000100000003000000050000000100000013
:1043A00001000000060000000A00000020000000DC
:1043B00002000000040000000800000010000000DF
:1043C000400000008000000000010000000200002A
:1043D000A0860100400D0300801A060000350C0085
:1043E00040420F0080841E0000093D0000127A0048
:1043F0000024F40000366E010048E801006CDC0285
:1044000000000000000000000000000000000000AC
:044410005D01000842
:044414003901000862
:0C44180000093D00100000000100000041
:04000005080042AD00
:00000001FF
